{
	"data": {
		"bytecode": {
			"linkReferences": {},
			"object": "608060405234801561001057600080fd5b506145a0806100206000396000f3fe608060405260043610620000385760003560e01c806352c7420d146200003d57806394ca2cb5146200006d5780639c4ae2d014620000b1575b600080fd5b3480156200004a57600080fd5b5062000055620000d1565b60405162000064919062000492565b60405180910390f35b3480156200007a57600080fd5b506200009960048036038101906200009391906200026d565b62000125565b604051620000a8919062000448565b60405180910390f35b620000cf6004803603810190620000c991906200026d565b62000171565b005b6060600060405180602001620000e790620001ca565b6020820181038252601f19601f820116604052509050806040516020016200011091906200042f565b60405160208183030381529060405291505090565b60008060ff60f81b308486805190602001206040516020016200014c9493929190620003d9565b6040516020818303038152906040528051906020012090508060001c91505092915050565b60008183516020850134f59050803b6200018a57600080fd5b7fb03c53b28e78a88e31607a27e1fa48234dce28d5d9d9ec7b295aeb02e674a1e18183604051620001bd92919062000465565b60405180910390a1505050565b613e7e80620006ed83390190565b6000620001ef620001e984620004df565b620004b6565b9050828152602081018484840111156200020e576200020d620006a5565b5b6200021b848285620005b0565b509392505050565b600082601f8301126200023b576200023a620006a0565b5b81356200024d848260208601620001d8565b91505092915050565b6000813590506200026781620006d2565b92915050565b60008060408385031215620002875762000286620006af565b5b600083013567ffffffffffffffff811115620002a857620002a7620006aa565b5b620002b68582860162000223565b9250506020620002c98582860162000256565b9150509250929050565b620002de816200053c565b82525050565b620002f9620002f3826200053c565b6200062b565b82525050565b620003146200030e8262000550565b6200063f565b82525050565b6200032f62000329826200057c565b62000649565b82525050565b6000620003428262000515565b6200034e818562000520565b935062000360818560208601620005bf565b6200036b81620006b4565b840191505092915050565b6000620003838262000515565b6200038f818562000531565b9350620003a1818560208601620005bf565b80840191505092915050565b620003b881620005a6565b82525050565b620003d3620003cd82620005a6565b62000667565b82525050565b6000620003e78287620002ff565b600182019150620003f98286620002e4565b6014820191506200040b8285620003be565b6020820191506200041d82846200031a565b60208201915081905095945050505050565b60006200043d828462000376565b915081905092915050565b60006020820190506200045f6000830184620002d3565b92915050565b60006040820190506200047c6000830185620002d3565b6200048b6020830184620003ad565b9392505050565b60006020820190508181036000830152620004ae818462000335565b905092915050565b6000620004c2620004d5565b9050620004d08282620005f5565b919050565b6000604051905090565b600067ffffffffffffffff821115620004fd57620004fc62000671565b5b6200050882620006b4565b9050602081019050919050565b600081519050919050565b600082825260208201905092915050565b600081905092915050565b6000620005498262000586565b9050919050565b60007fff0000000000000000000000000000000000000000000000000000000000000082169050919050565b6000819050919050565b600073ffffffffffffffffffffffffffffffffffffffff82169050919050565b6000819050919050565b82818337600083830152505050565b60005b83811015620005df578082015181840152602081019050620005c2565b83811115620005ef576000848401525b50505050565b6200060082620006b4565b810181811067ffffffffffffffff8211171562000622576200062162000671565b5b80604052505050565b6000620006388262000653565b9050919050565b6000819050919050565b6000819050919050565b60006200066082620006c5565b9050919050565b6000819050919050565b7f4e487b7100000000000000000000000000000000000000000000000000000000600052604160045260246000fd5b600080fd5b600080fd5b600080fd5b600080fd5b6000601f19601f8301169050919050565b60008160601b9050919050565b620006dd81620005a6565b8114620006e957600080fd5b5056fe60806040526611c37937e0800060ce553480156200001c57600080fd5b50600060019054906101000a900460ff16620000475760008054906101000a900460ff161562000058565b620000576200011460201b60201c565b5b6200009a576040517f08c379a000000000000000000000000000000000000000000000000000000000815260040162000091906200017c565b60405180910390fd5b60008060019054906101000a900460ff161590508015620000eb576001600060016101000a81548160ff02191690831515021790555060016000806101000a81548160ff0219169083151502179055505b80156200010d5760008060016101000a81548160ff0219169083151502179055505b50620001fe565b60006200012c306200013260201b620017ac1760201c565b15905090565b6000808273ffffffffffffffffffffffffffffffffffffffff163b119050919050565b600062000164602e836200019e565b91506200017182620001af565b604082019050919050565b60006020820190508181036000830152620001978162000155565b9050919050565b600082825260208201905092915050565b7f496e697469616c697a61626c653a20636f6e747261637420697320616c72656160008201527f647920696e697469616c697a6564000000000000000000000000000000000000602082015250565b613c70806200020e6000396000f3fe6080604052600436106101d85760003560e01c80636352211e11610102578063b88d4fde11610095578063e6fd48bc11610064578063e6fd48bc146106c0578063e97dcb62146106eb578063e985e9c5146106f5578063f2fde38b14610732576101d8565b8063b88d4fde146105f2578063c6c5d5651461061b578063c87b56dd14610658578063dbdff2c114610695576101d8565b80638da5cb5b116100d15780638da5cb5b146105485780638eff3c291461057357806395d89b411461059e578063a22cb465146105c9576101d8565b80636352211e146104a057806370a08231146104dd578063715018a61461051a5780638129fc1c14610531576101d8565b806323b872dd1161017a57806342842e0e1161014957806342842e0e1461040c578063469519541461043557806352d1902d1461045e5780635d495aea14610489576101d8565b806323b872dd1461032c578063244d381b14610355578063281d098d1461039257806334461067146103cf576101d8565b8063081812fc116101b6578063081812fc14610270578063095ea7b3146102ad57806312065fe0146102d657806313faede614610301576101d8565b806301ffc9a7146101dd57806306d62e1f1461021a57806306fdde0314610245575b600080fd5b3480156101e957600080fd5b5061020460048036038101906101ff9190612985565b61075b565b6040516102119190612f17565b60405180910390f35b34801561022657600080fd5b5061022f61083d565b60405161023c91906131af565b60405180910390f35b34801561025157600080fd5b5061025a610843565b6040516102679190612f4d565b60405180910390f35b34801561027c57600080fd5b50610297600480360381019061029291906129df565b6108d5565b6040516102a49190612e73565b60405180910390f35b3480156102b957600080fd5b506102d460048036038101906102cf9190612918565b61095a565b005b3480156102e257600080fd5b506102eb610a72565b6040516102f891906131af565b60405180910390f35b34801561030d57600080fd5b50610316610a7a565b60405161032391906131af565b60405180910390f35b34801561033857600080fd5b50610353600480360381019061034e9190612802565b610a80565b005b34801561036157600080fd5b5061037c600480360381019061037791906129df565b610ae0565b6040516103899190612e8e565b60405180910390f35b34801561039e57600080fd5b506103b960048036038101906103b491906129df565b610b13565b6040516103c69190612e8e565b60405180910390f35b3480156103db57600080fd5b506103f660048036038101906103f191906129df565b610b50565b6040516104039190612e8e565b60405180910390f35b34801561041857600080fd5b50610433600480360381019061042e9190612802565b610b8f565b005b34801561044157600080fd5b5061045c60048036038101906104579190612795565b610baf565b005b34801561046a57600080fd5b50610473610c37565b6040516104809190612f32565b60405180910390f35b34801561049557600080fd5b5061049e610c62565b005b3480156104ac57600080fd5b506104c760048036038101906104c291906129df565b610ea4565b6040516104d49190612e73565b60405180910390f35b3480156104e957600080fd5b5061050460048036038101906104ff9190612795565b610f56565b60405161051191906131af565b60405180910390f35b34801561052657600080fd5b5061052f61100e565b005b34801561053d57600080fd5b50610546611096565b005b34801561055457600080fd5b5061055d611199565b60405161056a9190612e73565b60405180910390f35b34801561057f57600080fd5b506105886111c3565b6040516105959190612ef5565b60405180910390f35b3480156105aa57600080fd5b506105b3611251565b6040516105c09190612f4d565b60405180910390f35b3480156105d557600080fd5b506105f060048036038101906105eb91906128d8565b6112e3565b005b3480156105fe57600080fd5b5061061960048036038101906106149190612855565b6112f9565b005b34801561062757600080fd5b50610642600480360381019061063d91906129df565b61135b565b60405161064f9190612f4d565b60405180910390f35b34801561066457600080fd5b5061067f600480360381019061067a91906129df565b611451565b60405161068c9190612f4d565b60405180910390f35b3480156106a157600080fd5b506106aa6114f8565b6040516106b791906131af565b60405180910390f35b3480156106cc57600080fd5b506106d5611537565b6040516106e291906131af565b60405180910390f35b6106f361153d565b005b34801561070157600080fd5b5061071c600480360381019061071791906127c2565b611620565b6040516107299190612f17565b60405180910390f35b34801561073e57600080fd5b5061075960048036038101906107549190612795565b6116b4565b005b60007f80ac58cd000000000000000000000000000000000000000000000000000000007bffffffffffffffffffffffffffffffffffffffffffffffffffffffff1916827bffffffffffffffffffffffffffffffffffffffffffffffffffffffff1916148061082657507f5b5e139f000000000000000000000000000000000000000000000000000000007bffffffffffffffffffffffffffffffffffffffffffffffffffffffff1916827bffffffffffffffffffffffffffffffffffffffffffffffffffffffff1916145b806108365750610835826117cf565b5b9050919050565b60cc5481565b60606097805461085290613483565b80601f016020809104026020016040519081016040528092919081815260200182805461087e90613483565b80156108cb5780601f106108a0576101008083540402835291602001916108cb565b820191906000526020600020905b8154815290600101906020018083116108ae57829003601f168201915b5050505050905090565b60006108e082611839565b61091f576040517f08c379a0000000000000000000000000000000000000000000000000000000008152600401610916906130ef565b60405180910390fd5b609b600083815260200190815260200160002060009054906101000a900473ffffffffffffffffffffffffffffffffffffffff169050919050565b600061096582610ea4565b90508073ffffffffffffffffffffffffffffffffffffffff168373ffffffffffffffffffffffffffffffffffffffff1614156109d6576040517f08c379a00000000000000000000000000000000000000000000000000000000081526004016109cd9061314f565b60405180910390fd5b8073ffffffffffffffffffffffffffffffffffffffff166109f56118a5565b73ffffffffffffffffffffffffffffffffffffffff161480610a245750610a2381610a1e6118a5565b611620565b5b610a63576040517f08c379a0000000000000000000000000000000000000000000000000000000008152600401610a5a9061306f565b60405180910390fd5b610a6d83836118ad565b505050565b600047905090565b60ce5481565b610a91610a8b6118a5565b82611966565b610ad0576040517f08c379a0000000000000000000000000000000000000000000000000000000008152600401610ac79061316f565b60405180910390fd5b610adb838383611a44565b505050565b60cf6020528060005260406000206000915054906101000a900473ffffffffffffffffffffffffffffffffffffffff1681565b600060cf600083815260200190815260200160002060009054906101000a900473ffffffffffffffffffffffffffffffffffffffff169050919050565b60cb8181548110610b6057600080fd5b906000526020600020016000915054906101000a900473ffffffffffffffffffffffffffffffffffffffff1681565b610baa838383604051806020016040528060008152506112f9565b505050565b610bb76118a5565b73ffffffffffffffffffffffffffffffffffffffff16610bd5611199565b73ffffffffffffffffffffffffffffffffffffffff1614610c2b576040517f08c379a0000000000000000000000000000000000000000000000000000000008152600401610c229061310f565b60405180910390fd5b610c3481611cab565b50565b60007fc5f16f0fcc639fa48a6947836d9850f504798523bf8c9a3a87d5876cf622bcf760001b905090565b610c6a6118a5565b73ffffffffffffffffffffffffffffffffffffffff16610c88611199565b73ffffffffffffffffffffffffffffffffffffffff1614610cde576040517f08c379a0000000000000000000000000000000000000000000000000000000008152600401610cd59061310f565b60405180910390fd5b600060cb80549050610cee6114f8565b610cf8919061355d565b905060cb8181548110610d0e57610d0d61361b565b5b9060005260206000200160009054906101000a900473ffffffffffffffffffffffffffffffffffffffff1673ffffffffffffffffffffffffffffffffffffffff166108fc6064603247610d619190613323565b610d6b91906132f2565b9081150290604051600060405180830381858888f19350505050158015610d96573d6000803e3d6000fd5b5060cb8181548110610dab57610daa61361b565b5b9060005260206000200160009054906101000a900473ffffffffffffffffffffffffffffffffffffffff1660cf600060cc54815260200190815260200160002060006101000a81548173ffffffffffffffffffffffffffffffffffffffff021916908373ffffffffffffffffffffffffffffffffffffffff16021790555060cc6000815480929190610e3c906134e6565b9190505550600067ffffffffffffffff811115610e5c57610e5b61364a565b5b604051908082528060200260200182016040528015610e8a5781602001602082028036833780820191505090505b5060cb9080519060200190610ea092919061257a565b5050565b6000806099600084815260200190815260200160002060009054906101000a900473ffffffffffffffffffffffffffffffffffffffff169050600073ffffffffffffffffffffffffffffffffffffffff168173ffffffffffffffffffffffffffffffffffffffff161415610f4d576040517f08c379a0000000000000000000000000000000000000000000000000000000008152600401610f44906130af565b60405180910390fd5b80915050919050565b60008073ffffffffffffffffffffffffffffffffffffffff168273ffffffffffffffffffffffffffffffffffffffff161415610fc7576040517f08c379a0000000000000000000000000000000000000000000000000000000008152600401610fbe9061308f565b60405180910390fd5b609a60008373ffffffffffffffffffffffffffffffffffffffff1673ffffffffffffffffffffffffffffffffffffffff168152602001908152602001600020549050919050565b6110166118a5565b73ffffffffffffffffffffffffffffffffffffffff16611034611199565b73ffffffffffffffffffffffffffffffffffffffff161461108a576040517f08c379a00000000000000000000000000000000000000000000000000000000081526004016110819061310f565b60405180910390fd5b6110946000611db3565b565b600060019054906101000a900460ff166110be5760008054906101000a900460ff16156110c7565b6110c6611e79565b5b611106576040517f08c379a00000000000000000000000000000000000000000000000000000000081526004016110fd906130cf565b60405180910390fd5b60008060019054906101000a900460ff161590508015611156576001600060016101000a81548160ff02191690831515021790555060016000806101000a81548160ff0219169083151502179055505b61115e611e8a565b600160cc819055504260cd81905550611175611ee3565b80156111965760008060016101000a81548160ff0219169083151502179055505b50565b6000603360009054906101000a900473ffffffffffffffffffffffffffffffffffffffff16905090565b606060cb80548060200260200160405190810160405280929190818152602001828054801561124757602002820191906000526020600020905b8160009054906101000a900473ffffffffffffffffffffffffffffffffffffffff1673ffffffffffffffffffffffffffffffffffffffff16815260200190600101908083116111fd575b5050505050905090565b60606098805461126090613483565b80601f016020809104026020016040519081016040528092919081815260200182805461128c90613483565b80156112d95780601f106112ae576101008083540402835291602001916112d9565b820191906000526020600020905b8154815290600101906020018083116112bc57829003601f168201915b5050505050905090565b6112f56112ee6118a5565b8383611f59565b5050565b61130a6113046118a5565b83611966565b611349576040517f08c379a00000000000000000000000000000000000000000000000000000000081526004016113409061316f565b60405180910390fd5b611355848484846120c6565b50505050565b606061136682611839565b6113a5576040517f08c379a000000000000000000000000000000000000000000000000000000000815260040161139c9061304f565b60405180910390fd5b600060ca600084815260200190815260200160002060000180546113c890613483565b80601f01602080910402602001604051908101604052809291908181526020018280546113f490613483565b80156114415780601f1061141657610100808354040283529160200191611441565b820191906000526020600020905b81548152906001019060200180831161142457829003601f168201915b5050505050905080915050919050565b606061145c82611839565b61149b576040517f08c379a00000000000000000000000000000000000000000000000000000000081526004016114929061312f565b60405180910390fd5b60006114a5612122565b905060008151116114c557604051806020016040528060008152506114f0565b806114cf84612139565b6040516020016114e0929190612e4f565b6040516020818303038152906040525b915050919050565b600080611503611199565b90508042604051602001611518929190612e23565b6040516020818303038152906040528051906020012060001c91505090565b60cd5481565b603c60cd5461154c919061329c565b42101580156115695750606460cd54611565919061329c565b4211155b61157257600080fd5b600073ffffffffffffffffffffffffffffffffffffffff163373ffffffffffffffffffffffffffffffffffffffff1614156115ac57600080fd5b60ce543410156115bb57600080fd5b60cb339080600181540180825580915050600190039060005260206000200160009091909190916101000a81548173ffffffffffffffffffffffffffffffffffffffff021916908373ffffffffffffffffffffffffffffffffffffffff160217905550565b6000609c60008473ffffffffffffffffffffffffffffffffffffffff1673ffffffffffffffffffffffffffffffffffffffff16815260200190815260200160002060008373ffffffffffffffffffffffffffffffffffffffff1673ffffffffffffffffffffffffffffffffffffffff16815260200190815260200160002060009054906101000a900460ff16905092915050565b6116bc6118a5565b73ffffffffffffffffffffffffffffffffffffffff166116da611199565b73ffffffffffffffffffffffffffffffffffffffff1614611730576040517f08c379a00000000000000000000000000000000000000000000000000000000081526004016117279061310f565b60405180910390fd5b600073ffffffffffffffffffffffffffffffffffffffff168173ffffffffffffffffffffffffffffffffffffffff1614156117a0576040517f08c379a000000000000000000000000000000000000000000000000000000000815260040161179790612faf565b60405180910390fd5b6117a981611db3565b50565b6000808273ffffffffffffffffffffffffffffffffffffffff163b119050919050565b60007f01ffc9a7000000000000000000000000000000000000000000000000000000007bffffffffffffffffffffffffffffffffffffffffffffffffffffffff1916827bffffffffffffffffffffffffffffffffffffffffffffffffffffffff1916149050919050565b60008073ffffffffffffffffffffffffffffffffffffffff166099600084815260200190815260200160002060009054906101000a900473ffffffffffffffffffffffffffffffffffffffff1673ffffffffffffffffffffffffffffffffffffffff1614159050919050565b600033905090565b81609b600083815260200190815260200160002060006101000a81548173ffffffffffffffffffffffffffffffffffffffff021916908373ffffffffffffffffffffffffffffffffffffffff160217905550808273ffffffffffffffffffffffffffffffffffffffff1661192083610ea4565b73ffffffffffffffffffffffffffffffffffffffff167f8c5be1e5ebec7d5bd14f71427d1e84f3dd0314c0f7b2291e5b200ac8c7c3b92560405160405180910390a45050565b600061197182611839565b6119b0576040517f08c379a00000000000000000000000000000000000000000000000000000000081526004016119a79061302f565b60405180910390fd5b60006119bb83610ea4565b90508073ffffffffffffffffffffffffffffffffffffffff168473ffffffffffffffffffffffffffffffffffffffff161480611a2a57508373ffffffffffffffffffffffffffffffffffffffff16611a12846108d5565b73ffffffffffffffffffffffffffffffffffffffff16145b80611a3b5750611a3a8185611620565b5b91505092915050565b8273ffffffffffffffffffffffffffffffffffffffff16611a6482610ea4565b73ffffffffffffffffffffffffffffffffffffffff1614611aba576040517f08c379a0000000000000000000000000000000000000000000000000000000008152600401611ab190612fcf565b60405180910390fd5b600073ffffffffffffffffffffffffffffffffffffffff168273ffffffffffffffffffffffffffffffffffffffff161415611b2a576040517f08c379a0000000000000000000000000000000000000000000000000000000008152600401611b2190612fef565b60405180910390fd5b611b3583838361229a565b611b406000826118ad565b6001609a60008573ffffffffffffffffffffffffffffffffffffffff1673ffffffffffffffffffffffffffffffffffffffff1681526020019081526020016000206000828254611b90919061337d565b925050819055506001609a60008473ffffffffffffffffffffffffffffffffffffffff1673ffffffffffffffffffffffffffffffffffffffff1681526020019081526020016000206000828254611be7919061329c565b92505081905550816099600083815260200190815260200160002060006101000a81548173ffffffffffffffffffffffffffffffffffffffff021916908373ffffffffffffffffffffffffffffffffffffffff160217905550808273ffffffffffffffffffffffffffffffffffffffff168473ffffffffffffffffffffffffffffffffffffffff167fddf252ad1be2c89b69c2b068fc378daa952ba7f163c4a11628f55a4df523b3ef60405160405180910390a4611ca683838361229f565b505050565b8073ffffffffffffffffffffffffffffffffffffffff166352d1902d6040518163ffffffff1660e01b815260040160206040518083038186803b158015611cf157600080fd5b505afa158015611d05573d6000803e3d6000fd5b505050506040513d601f19601f82011682018060405250810190611d299190612958565b7fc5f16f0fcc639fa48a6947836d9850f504798523bf8c9a3a87d5876cf622bcf760001b14611d8d576040517f08c379a0000000000000000000000000000000000000000000000000000000008152600401611d8490612f6f565b60405180910390fd5b807fc5f16f0fcc639fa48a6947836d9850f504798523bf8c9a3a87d5876cf622bcf75550565b6000603360009054906101000a900473ffffffffffffffffffffffffffffffffffffffff16905081603360006101000a81548173ffffffffffffffffffffffffffffffffffffffff021916908373ffffffffffffffffffffffffffffffffffffffff1602179055508173ffffffffffffffffffffffffffffffffffffffff168173ffffffffffffffffffffffffffffffffffffffff167f8be0079c531659141344cd1fd0a4f28419497f9722a3daafe3b4186f6b6457e060405160405180910390a35050565b6000611e84306117ac565b15905090565b600060019054906101000a900460ff16611ed9576040517f08c379a0000000000000000000000000000000000000000000000000000000008152600401611ed09061318f565b60405180910390fd5b611ee16122a4565b565b611f576040518060400160405280600681526020017f5469636b657400000000000000000000000000000000000000000000000000008152506040518060400160405280600381526020017f544b540000000000000000000000000000000000000000000000000000000000815250612305565b565b8173ffffffffffffffffffffffffffffffffffffffff168373ffffffffffffffffffffffffffffffffffffffff161415611fc8576040517f08c379a0000000000000000000000000000000000000000000000000000000008152600401611fbf9061300f565b60405180910390fd5b80609c60008573ffffffffffffffffffffffffffffffffffffffff1673ffffffffffffffffffffffffffffffffffffffff16815260200190815260200160002060008473ffffffffffffffffffffffffffffffffffffffff1673ffffffffffffffffffffffffffffffffffffffff16815260200190815260200160002060006101000a81548160ff0219169083151502179055508173ffffffffffffffffffffffffffffffffffffffff168373ffffffffffffffffffffffffffffffffffffffff167f17307eab39ab6107e8899845ad3d59bd9653f200f220920489ca2b5937696c31836040516120b99190612f17565b60405180910390a3505050565b6120d1848484611a44565b6120dd84848484612362565b61211c576040517f08c379a000000000000000000000000000000000000000000000000000000000815260040161211390612f8f565b60405180910390fd5b50505050565b606060405180602001604052806000815250905090565b60606000821415612181576040518060400160405280600181526020017f30000000000000000000000000000000000000000000000000000000000000008152509050612295565b600082905060005b600082146121b357808061219c906134e6565b915050600a826121ac91906132f2565b9150612189565b60008167ffffffffffffffff8111156121cf576121ce61364a565b5b6040519080825280601f01601f1916602001820160405280156122015781602001600182028036833780820191505090505b5090505b6000851461228e5760018261221a919061337d565b9150600a85612229919061355d565b6030612235919061329c565b60f81b81838151811061224b5761224a61361b565b5b60200101907effffffffffffffffffffffffffffffffffffffffffffffffffffffffffffff1916908160001a905350600a8561228791906132f2565b9450612205565b8093505050505b919050565b505050565b505050565b600060019054906101000a900460ff166122f3576040517f08c379a00000000000000000000000000000000000000000000000000000000081526004016122ea9061318f565b60405180910390fd5b6123036122fe6118a5565b611db3565b565b600060019054906101000a900460ff16612354576040517f08c379a000000000000000000000000000000000000000000000000000000000815260040161234b9061318f565b60405180910390fd5b61235e82826124f9565b5050565b60006123838473ffffffffffffffffffffffffffffffffffffffff166117ac565b156124ec578373ffffffffffffffffffffffffffffffffffffffff1663150b7a026123ac6118a5565b8786866040518563ffffffff1660e01b81526004016123ce9493929190612ea9565b602060405180830381600087803b1580156123e857600080fd5b505af192505050801561241957506040513d601f19601f8201168201806040525081019061241691906129b2565b60015b61249c573d8060008114612449576040519150601f19603f3d011682016040523d82523d6000602084013e61244e565b606091505b50600081511415612494576040517f08c379a000000000000000000000000000000000000000000000000000000000815260040161248b90612f8f565b60405180910390fd5b805181602001fd5b63150b7a0260e01b7bffffffffffffffffffffffffffffffffffffffffffffffffffffffff1916817bffffffffffffffffffffffffffffffffffffffffffffffffffffffff1916149150506124f1565b600190505b949350505050565b600060019054906101000a900460ff16612548576040517f08c379a000000000000000000000000000000000000000000000000000000000815260040161253f9061318f565b60405180910390fd5b816097908051906020019061255e929190612604565b508060989080519060200190612575929190612604565b505050565b8280548282559060005260206000209081019282156125f3579160200282015b828111156125f25782518260006101000a81548173ffffffffffffffffffffffffffffffffffffffff021916908373ffffffffffffffffffffffffffffffffffffffff1602179055509160200191906001019061259a565b5b509050612600919061268a565b5090565b82805461261090613483565b90600052602060002090601f0160209004810192826126325760008555612679565b82601f1061264b57805160ff1916838001178555612679565b82800160010185558215612679579182015b8281111561267857825182559160200191906001019061265d565b5b509050612686919061268a565b5090565b5b808211156126a357600081600090555060010161268b565b5090565b60006126ba6126b5846131ef565b6131ca565b9050828152602081018484840111156126d6576126d561367e565b5b6126e1848285613441565b509392505050565b6000813590506126f881613bc7565b92915050565b60008135905061270d81613bde565b92915050565b60008151905061272281613bf5565b92915050565b60008135905061273781613c0c565b92915050565b60008151905061274c81613c0c565b92915050565b600082601f83011261276757612766613679565b5b81356127778482602086016126a7565b91505092915050565b60008135905061278f81613c23565b92915050565b6000602082840312156127ab576127aa613688565b5b60006127b9848285016126e9565b91505092915050565b600080604083850312156127d9576127d8613688565b5b60006127e7858286016126e9565b92505060206127f8858286016126e9565b9150509250929050565b60008060006060848603121561281b5761281a613688565b5b6000612829868287016126e9565b935050602061283a868287016126e9565b925050604061284b86828701612780565b9150509250925092565b6000806000806080858703121561286f5761286e613688565b5b600061287d878288016126e9565b945050602061288e878288016126e9565b935050604061289f87828801612780565b925050606085013567ffffffffffffffff8111156128c0576128bf613683565b5b6128cc87828801612752565b91505092959194509250565b600080604083850312156128ef576128ee613688565b5b60006128fd858286016126e9565b925050602061290e858286016126fe565b9150509250929050565b6000806040838503121561292f5761292e613688565b5b600061293d858286016126e9565b925050602061294e85828601612780565b9150509250929050565b60006020828403121561296e5761296d613688565b5b600061297c84828501612713565b91505092915050565b60006020828403121561299b5761299a613688565b5b60006129a984828501612728565b91505092915050565b6000602082840312156129c8576129c7613688565b5b60006129d68482850161273d565b91505092915050565b6000602082840312156129f5576129f4613688565b5b6000612a0384828501612780565b91505092915050565b6000612a188383612a24565b60208301905092915050565b612a2d816133c3565b82525050565b612a3c816133c3565b82525050565b612a4b816133b1565b82525050565b612a62612a5d826133b1565b61352f565b82525050565b6000612a7382613230565b612a7d818561325e565b9350612a8883613220565b8060005b83811015612ab9578151612aa08882612a0c565b9750612aab83613251565b925050600181019050612a8c565b5085935050505092915050565b612acf816133d5565b82525050565b612ade816133e1565b82525050565b6000612aef8261323b565b612af9818561326f565b9350612b09818560208601613450565b612b128161368d565b840191505092915050565b6000612b2882613246565b612b328185613280565b9350612b42818560208601613450565b612b4b8161368d565b840191505092915050565b6000612b6182613246565b612b6b8185613291565b9350612b7b818560208601613450565b80840191505092915050565b6000612b94600e83613280565b9150612b9f826136ab565b602082019050919050565b6000612bb7603283613280565b9150612bc2826136d4565b604082019050919050565b6000612bda602683613280565b9150612be582613723565b604082019050919050565b6000612bfd602583613280565b9150612c0882613772565b604082019050919050565b6000612c20602483613280565b9150612c2b826137c1565b604082019050919050565b6000612c43601983613280565b9150612c4e82613810565b602082019050919050565b6000612c66602c83613280565b9150612c7182613839565b604082019050919050565b6000612c89603083613280565b9150612c9482613888565b604082019050919050565b6000612cac603883613280565b9150612cb7826138d7565b604082019050919050565b6000612ccf602a83613280565b9150612cda82613926565b604082019050919050565b6000612cf2602983613280565b9150612cfd82613975565b604082019050919050565b6000612d15602e83613280565b9150612d20826139c4565b604082019050919050565b6000612d38602c83613280565b9150612d4382613a13565b604082019050919050565b6000612d5b602083613280565b9150612d6682613a62565b602082019050919050565b6000612d7e602f83613280565b9150612d8982613a8b565b604082019050919050565b6000612da1602183613280565b9150612dac82613ada565b604082019050919050565b6000612dc4603183613280565b9150612dcf82613b29565b604082019050919050565b6000612de7602b83613280565b9150612df282613b78565b604082019050919050565b612e0681613437565b82525050565b612e1d612e1882613437565b613553565b82525050565b6000612e2f8285612a51565b601482019150612e3f8284612e0c565b6020820191508190509392505050565b6000612e5b8285612b56565b9150612e678284612b56565b91508190509392505050565b6000602082019050612e886000830184612a42565b92915050565b6000602082019050612ea36000830184612a33565b92915050565b6000608082019050612ebe6000830187612a42565b612ecb6020830186612a42565b612ed86040830185612dfd565b8181036060830152612eea8184612ae4565b905095945050505050565b60006020820190508181036000830152612f0f8184612a68565b905092915050565b6000602082019050612f2c6000830184612ac6565b92915050565b6000602082019050612f476000830184612ad5565b92915050565b60006020820190508181036000830152612f678184612b1d565b905092915050565b60006020820190508181036000830152612f8881612b87565b9050919050565b60006020820190508181036000830152612fa881612baa565b9050919050565b60006020820190508181036000830152612fc881612bcd565b9050919050565b60006020820190508181036000830152612fe881612bf0565b9050919050565b6000602082019050818103600083015261300881612c13565b9050919050565b6000602082019050818103600083015261302881612c36565b9050919050565b6000602082019050818103600083015261304881612c59565b9050919050565b6000602082019050818103600083015261306881612c7c565b9050919050565b6000602082019050818103600083015261308881612c9f565b9050919050565b600060208201905081810360008301526130a881612cc2565b9050919050565b600060208201905081810360008301526130c881612ce5565b9050919050565b600060208201905081810360008301526130e881612d08565b9050919050565b6000602082019050818103600083015261310881612d2b565b9050919050565b6000602082019050818103600083015261312881612d4e565b9050919050565b6000602082019050818103600083015261314881612d71565b9050919050565b6000602082019050818103600083015261316881612d94565b9050919050565b6000602082019050818103600083015261318881612db7565b9050919050565b600060208201905081810360008301526131a881612dda565b9050919050565b60006020820190506131c46000830184612dfd565b92915050565b60006131d46131e5565b90506131e082826134b5565b919050565b6000604051905090565b600067ffffffffffffffff82111561320a5761320961364a565b5b6132138261368d565b9050602081019050919050565b6000819050602082019050919050565b600081519050919050565b600081519050919050565b600081519050919050565b6000602082019050919050565b600082825260208201905092915050565b600082825260208201905092915050565b600082825260208201905092915050565b600081905092915050565b60006132a782613437565b91506132b283613437565b9250827fffffffffffffffffffffffffffffffffffffffffffffffffffffffffffffffff038211156132e7576132e661358e565b5b828201905092915050565b60006132fd82613437565b915061330883613437565b925082613318576133176135bd565b5b828204905092915050565b600061332e82613437565b915061333983613437565b9250817fffffffffffffffffffffffffffffffffffffffffffffffffffffffffffffffff04831182151516156133725761337161358e565b5b828202905092915050565b600061338882613437565b915061339383613437565b9250828210156133a6576133a561358e565b5b828203905092915050565b60006133bc82613417565b9050919050565b60006133ce82613417565b9050919050565b60008115159050919050565b6000819050919050565b60007fffffffff0000000000000000000000000000000000000000000000000000000082169050919050565b600073ffffffffffffffffffffffffffffffffffffffff82169050919050565b6000819050919050565b82818337600083830152505050565b60005b8381101561346e578082015181840152602081019050613453565b8381111561347d576000848401525b50505050565b6000600282049050600182168061349b57607f821691505b602082108114156134af576134ae6135ec565b5b50919050565b6134be8261368d565b810181811067ffffffffffffffff821117156134dd576134dc61364a565b5b80604052505050565b60006134f182613437565b91507fffffffffffffffffffffffffffffffffffffffffffffffffffffffffffffffff8214156135245761352361358e565b5b600182019050919050565b600061353a82613541565b9050919050565b600061354c8261369e565b9050919050565b6000819050919050565b600061356882613437565b915061357383613437565b925082613583576135826135bd565b5b828206905092915050565b7f4e487b7100000000000000000000000000000000000000000000000000000000600052601160045260246000fd5b7f4e487b7100000000000000000000000000000000000000000000000000000000600052601260045260246000fd5b7f4e487b7100000000000000000000000000000000000000000000000000000000600052602260045260246000fd5b7f4e487b7100000000000000000000000000000000000000000000000000000000600052603260045260246000fd5b7f4e487b7100000000000000000000000000000000000000000000000000000000600052604160045260246000fd5b600080fd5b600080fd5b600080fd5b600080fd5b6000601f19601f8301169050919050565b60008160601b9050919050565b7f4e6f7420636f6d70617469626c65000000000000000000000000000000000000600082015250565b7f4552433732313a207472616e7366657220746f206e6f6e20455243373231526560008201527f63656976657220696d706c656d656e7465720000000000000000000000000000602082015250565b7f4f776e61626c653a206e6577206f776e657220697320746865207a65726f206160008201527f6464726573730000000000000000000000000000000000000000000000000000602082015250565b7f4552433732313a207472616e736665722066726f6d20696e636f72726563742060008201527f6f776e6572000000000000000000000000000000000000000000000000000000602082015250565b7f4552433732313a207472616e7366657220746f20746865207a65726f2061646460008201527f7265737300000000000000000000000000000000000000000000000000000000602082015250565b7f4552433732313a20617070726f766520746f2063616c6c657200000000000000600082015250565b7f4552433732313a206f70657261746f7220717565727920666f72206e6f6e657860008201527f697374656e7420746f6b656e0000000000000000000000000000000000000000602082015250565b7f4552433732314d657461646174613a2055524920717565727920666f72206e6f60008201527f6e6578697374656e74207469636b657400000000000000000000000000000000602082015250565b7f4552433732313a20617070726f76652063616c6c6572206973206e6f74206f7760008201527f6e6572206e6f7220617070726f76656420666f7220616c6c0000000000000000602082015250565b7f4552433732313a2062616c616e636520717565727920666f7220746865207a6560008201527f726f206164647265737300000000000000000000000000000000000000000000602082015250565b7f4552433732313a206f776e657220717565727920666f72206e6f6e657869737460008201527f656e7420746f6b656e0000000000000000000000000000000000000000000000602082015250565b7f496e697469616c697a61626c653a20636f6e747261637420697320616c72656160008201527f647920696e697469616c697a6564000000000000000000000000000000000000602082015250565b7f4552433732313a20617070726f76656420717565727920666f72206e6f6e657860008201527f697374656e7420746f6b656e0000000000000000000000000000000000000000602082015250565b7f4f776e61626c653a2063616c6c6572206973206e6f7420746865206f776e6572600082015250565b7f4552433732314d657461646174613a2055524920717565727920666f72206e6f60008201527f6e6578697374656e7420746f6b656e0000000000000000000000000000000000602082015250565b7f4552433732313a20617070726f76616c20746f2063757272656e74206f776e6560008201527f7200000000000000000000000000000000000000000000000000000000000000602082015250565b7f4552433732313a207472616e736665722063616c6c6572206973206e6f74206f60008201527f776e6572206e6f7220617070726f766564000000000000000000000000000000602082015250565b7f496e697469616c697a61626c653a20636f6e7472616374206973206e6f74206960008201527f6e697469616c697a696e67000000000000000000000000000000000000000000602082015250565b613bd0816133b1565b8114613bdb57600080fd5b50565b613be7816133d5565b8114613bf257600080fd5b50565b613bfe816133e1565b8114613c0957600080fd5b50565b613c15816133eb565b8114613c2057600080fd5b50565b613c2c81613437565b8114613c3757600080fd5b5056fea2646970667358221220e267f83378e442c3f0aaca9cba9459954a6a3c0ca2023af8d58859324c196daa64736f6c63430008070033a2646970667358221220dbd1136fb141e3aa4fe9fdafb90647711fcbb2f32db7d60588d2bea8a24a6f2364736f6c63430008070033",
			"opcodes": "PUSH1 0x80 PUSH1 0x40 MSTORE CALLVALUE DUP1 ISZERO PUSH2 0x10 JUMPI PUSH1 0x0 DUP1 REVERT JUMPDEST POP PUSH2 0x45A0 DUP1 PUSH2 0x20 PUSH1 0x0 CODECOPY PUSH1 0x0 RETURN INVALID PUSH1 0x80 PUSH1 0x40 MSTORE PUSH1 0x4 CALLDATASIZE LT PUSH3 0x38 JUMPI PUSH1 0x0 CALLDATALOAD PUSH1 0xE0 SHR DUP1 PUSH4 0x52C7420D EQ PUSH3 0x3D JUMPI DUP1 PUSH4 0x94CA2CB5 EQ PUSH3 0x6D JUMPI DUP1 PUSH4 0x9C4AE2D0 EQ PUSH3 0xB1 JUMPI JUMPDEST PUSH1 0x0 DUP1 REVERT JUMPDEST CALLVALUE DUP1 ISZERO PUSH3 0x4A JUMPI PUSH1 0x0 DUP1 REVERT JUMPDEST POP PUSH3 0x55 PUSH3 0xD1 JUMP JUMPDEST PUSH1 0x40 MLOAD PUSH3 0x64 SWAP2 SWAP1 PUSH3 0x492 JUMP JUMPDEST PUSH1 0x40 MLOAD DUP1 SWAP2 SUB SWAP1 RETURN JUMPDEST CALLVALUE DUP1 ISZERO PUSH3 0x7A JUMPI PUSH1 0x0 DUP1 REVERT JUMPDEST POP PUSH3 0x99 PUSH1 0x4 DUP1 CALLDATASIZE SUB DUP2 ADD SWAP1 PUSH3 0x93 SWAP2 SWAP1 PUSH3 0x26D JUMP JUMPDEST PUSH3 0x125 JUMP JUMPDEST PUSH1 0x40 MLOAD PUSH3 0xA8 SWAP2 SWAP1 PUSH3 0x448 JUMP JUMPDEST PUSH1 0x40 MLOAD DUP1 SWAP2 SUB SWAP1 RETURN JUMPDEST PUSH3 0xCF PUSH1 0x4 DUP1 CALLDATASIZE SUB DUP2 ADD SWAP1 PUSH3 0xC9 SWAP2 SWAP1 PUSH3 0x26D JUMP JUMPDEST PUSH3 0x171 JUMP JUMPDEST STOP JUMPDEST PUSH1 0x60 PUSH1 0x0 PUSH1 0x40 MLOAD DUP1 PUSH1 0x20 ADD PUSH3 0xE7 SWAP1 PUSH3 0x1CA JUMP JUMPDEST PUSH1 0x20 DUP3 ADD DUP2 SUB DUP3 MSTORE PUSH1 0x1F NOT PUSH1 0x1F DUP3 ADD AND PUSH1 0x40 MSTORE POP SWAP1 POP DUP1 PUSH1 0x40 MLOAD PUSH1 0x20 ADD PUSH3 0x110 SWAP2 SWAP1 PUSH3 0x42F JUMP JUMPDEST PUSH1 0x40 MLOAD PUSH1 0x20 DUP2 DUP4 SUB SUB DUP2 MSTORE SWAP1 PUSH1 0x40 MSTORE SWAP2 POP POP SWAP1 JUMP JUMPDEST PUSH1 0x0 DUP1 PUSH1 0xFF PUSH1 0xF8 SHL ADDRESS DUP5 DUP7 DUP1 MLOAD SWAP1 PUSH1 0x20 ADD KECCAK256 PUSH1 0x40 MLOAD PUSH1 0x20 ADD PUSH3 0x14C SWAP5 SWAP4 SWAP3 SWAP2 SWAP1 PUSH3 0x3D9 JUMP JUMPDEST PUSH1 0x40 MLOAD PUSH1 0x20 DUP2 DUP4 SUB SUB DUP2 MSTORE SWAP1 PUSH1 0x40 MSTORE DUP1 MLOAD SWAP1 PUSH1 0x20 ADD KECCAK256 SWAP1 POP DUP1 PUSH1 0x0 SHR SWAP2 POP POP SWAP3 SWAP2 POP POP JUMP JUMPDEST PUSH1 0x0 DUP2 DUP4 MLOAD PUSH1 0x20 DUP6 ADD CALLVALUE CREATE2 SWAP1 POP DUP1 EXTCODESIZE PUSH3 0x18A JUMPI PUSH1 0x0 DUP1 REVERT JUMPDEST PUSH32 0xB03C53B28E78A88E31607A27E1FA48234DCE28D5D9D9EC7B295AEB02E674A1E1 DUP2 DUP4 PUSH1 0x40 MLOAD PUSH3 0x1BD SWAP3 SWAP2 SWAP1 PUSH3 0x465 JUMP JUMPDEST PUSH1 0x40 MLOAD DUP1 SWAP2 SUB SWAP1 LOG1 POP POP POP JUMP JUMPDEST PUSH2 0x3E7E DUP1 PUSH3 0x6ED DUP4 CODECOPY ADD SWAP1 JUMP JUMPDEST PUSH1 0x0 PUSH3 0x1EF PUSH3 0x1E9 DUP5 PUSH3 0x4DF JUMP JUMPDEST PUSH3 0x4B6 JUMP JUMPDEST SWAP1 POP DUP3 DUP2 MSTORE PUSH1 0x20 DUP2 ADD DUP5 DUP5 DUP5 ADD GT ISZERO PUSH3 0x20E JUMPI PUSH3 0x20D PUSH3 0x6A5 JUMP JUMPDEST JUMPDEST PUSH3 0x21B DUP5 DUP3 DUP6 PUSH3 0x5B0 JUMP JUMPDEST POP SWAP4 SWAP3 POP POP POP JUMP JUMPDEST PUSH1 0x0 DUP3 PUSH1 0x1F DUP4 ADD SLT PUSH3 0x23B JUMPI PUSH3 0x23A PUSH3 0x6A0 JUMP JUMPDEST JUMPDEST DUP2 CALLDATALOAD PUSH3 0x24D DUP5 DUP3 PUSH1 0x20 DUP7 ADD PUSH3 0x1D8 JUMP JUMPDEST SWAP2 POP POP SWAP3 SWAP2 POP POP JUMP JUMPDEST PUSH1 0x0 DUP2 CALLDATALOAD SWAP1 POP PUSH3 0x267 DUP2 PUSH3 0x6D2 JUMP JUMPDEST SWAP3 SWAP2 POP POP JUMP JUMPDEST PUSH1 0x0 DUP1 PUSH1 0x40 DUP4 DUP6 SUB SLT ISZERO PUSH3 0x287 JUMPI PUSH3 0x286 PUSH3 0x6AF JUMP JUMPDEST JUMPDEST PUSH1 0x0 DUP4 ADD CALLDATALOAD PUSH8 0xFFFFFFFFFFFFFFFF DUP2 GT ISZERO PUSH3 0x2A8 JUMPI PUSH3 0x2A7 PUSH3 0x6AA JUMP JUMPDEST JUMPDEST PUSH3 0x2B6 DUP6 DUP3 DUP7 ADD PUSH3 0x223 JUMP JUMPDEST SWAP3 POP POP PUSH1 0x20 PUSH3 0x2C9 DUP6 DUP3 DUP7 ADD PUSH3 0x256 JUMP JUMPDEST SWAP2 POP POP SWAP3 POP SWAP3 SWAP1 POP JUMP JUMPDEST PUSH3 0x2DE DUP2 PUSH3 0x53C JUMP JUMPDEST DUP3 MSTORE POP POP JUMP JUMPDEST PUSH3 0x2F9 PUSH3 0x2F3 DUP3 PUSH3 0x53C JUMP JUMPDEST PUSH3 0x62B JUMP JUMPDEST DUP3 MSTORE POP POP JUMP JUMPDEST PUSH3 0x314 PUSH3 0x30E DUP3 PUSH3 0x550 JUMP JUMPDEST PUSH3 0x63F JUMP JUMPDEST DUP3 MSTORE POP POP JUMP JUMPDEST PUSH3 0x32F PUSH3 0x329 DUP3 PUSH3 0x57C JUMP JUMPDEST PUSH3 0x649 JUMP JUMPDEST DUP3 MSTORE POP POP JUMP JUMPDEST PUSH1 0x0 PUSH3 0x342 DUP3 PUSH3 0x515 JUMP JUMPDEST PUSH3 0x34E DUP2 DUP6 PUSH3 0x520 JUMP JUMPDEST SWAP4 POP PUSH3 0x360 DUP2 DUP6 PUSH1 0x20 DUP7 ADD PUSH3 0x5BF JUMP JUMPDEST PUSH3 0x36B DUP2 PUSH3 0x6B4 JUMP JUMPDEST DUP5 ADD SWAP2 POP POP SWAP3 SWAP2 POP POP JUMP JUMPDEST PUSH1 0x0 PUSH3 0x383 DUP3 PUSH3 0x515 JUMP JUMPDEST PUSH3 0x38F DUP2 DUP6 PUSH3 0x531 JUMP JUMPDEST SWAP4 POP PUSH3 0x3A1 DUP2 DUP6 PUSH1 0x20 DUP7 ADD PUSH3 0x5BF JUMP JUMPDEST DUP1 DUP5 ADD SWAP2 POP POP SWAP3 SWAP2 POP POP JUMP JUMPDEST PUSH3 0x3B8 DUP2 PUSH3 0x5A6 JUMP JUMPDEST DUP3 MSTORE POP POP JUMP JUMPDEST PUSH3 0x3D3 PUSH3 0x3CD DUP3 PUSH3 0x5A6 JUMP JUMPDEST PUSH3 0x667 JUMP JUMPDEST DUP3 MSTORE POP POP JUMP JUMPDEST PUSH1 0x0 PUSH3 0x3E7 DUP3 DUP8 PUSH3 0x2FF JUMP JUMPDEST PUSH1 0x1 DUP3 ADD SWAP2 POP PUSH3 0x3F9 DUP3 DUP7 PUSH3 0x2E4 JUMP JUMPDEST PUSH1 0x14 DUP3 ADD SWAP2 POP PUSH3 0x40B DUP3 DUP6 PUSH3 0x3BE JUMP JUMPDEST PUSH1 0x20 DUP3 ADD SWAP2 POP PUSH3 0x41D DUP3 DUP5 PUSH3 0x31A JUMP JUMPDEST PUSH1 0x20 DUP3 ADD SWAP2 POP DUP2 SWAP1 POP SWAP6 SWAP5 POP POP POP POP POP JUMP JUMPDEST PUSH1 0x0 PUSH3 0x43D DUP3 DUP5 PUSH3 0x376 JUMP JUMPDEST SWAP2 POP DUP2 SWAP1 POP SWAP3 SWAP2 POP POP JUMP JUMPDEST PUSH1 0x0 PUSH1 0x20 DUP3 ADD SWAP1 POP PUSH3 0x45F PUSH1 0x0 DUP4 ADD DUP5 PUSH3 0x2D3 JUMP JUMPDEST SWAP3 SWAP2 POP POP JUMP JUMPDEST PUSH1 0x0 PUSH1 0x40 DUP3 ADD SWAP1 POP PUSH3 0x47C PUSH1 0x0 DUP4 ADD DUP6 PUSH3 0x2D3 JUMP JUMPDEST PUSH3 0x48B PUSH1 0x20 DUP4 ADD DUP5 PUSH3 0x3AD JUMP JUMPDEST SWAP4 SWAP3 POP POP POP JUMP JUMPDEST PUSH1 0x0 PUSH1 0x20 DUP3 ADD SWAP1 POP DUP2 DUP2 SUB PUSH1 0x0 DUP4 ADD MSTORE PUSH3 0x4AE DUP2 DUP5 PUSH3 0x335 JUMP JUMPDEST SWAP1 POP SWAP3 SWAP2 POP POP JUMP JUMPDEST PUSH1 0x0 PUSH3 0x4C2 PUSH3 0x4D5 JUMP JUMPDEST SWAP1 POP PUSH3 0x4D0 DUP3 DUP3 PUSH3 0x5F5 JUMP JUMPDEST SWAP2 SWAP1 POP JUMP JUMPDEST PUSH1 0x0 PUSH1 0x40 MLOAD SWAP1 POP SWAP1 JUMP JUMPDEST PUSH1 0x0 PUSH8 0xFFFFFFFFFFFFFFFF DUP3 GT ISZERO PUSH3 0x4FD JUMPI PUSH3 0x4FC PUSH3 0x671 JUMP JUMPDEST JUMPDEST PUSH3 0x508 DUP3 PUSH3 0x6B4 JUMP JUMPDEST SWAP1 POP PUSH1 0x20 DUP2 ADD SWAP1 POP SWAP2 SWAP1 POP JUMP JUMPDEST PUSH1 0x0 DUP2 MLOAD SWAP1 POP SWAP2 SWAP1 POP JUMP JUMPDEST PUSH1 0x0 DUP3 DUP3 MSTORE PUSH1 0x20 DUP3 ADD SWAP1 POP SWAP3 SWAP2 POP POP JUMP JUMPDEST PUSH1 0x0 DUP2 SWAP1 POP SWAP3 SWAP2 POP POP JUMP JUMPDEST PUSH1 0x0 PUSH3 0x549 DUP3 PUSH3 0x586 JUMP JUMPDEST SWAP1 POP SWAP2 SWAP1 POP JUMP JUMPDEST PUSH1 0x0 PUSH32 0xFF00000000000000000000000000000000000000000000000000000000000000 DUP3 AND SWAP1 POP SWAP2 SWAP1 POP JUMP JUMPDEST PUSH1 0x0 DUP2 SWAP1 POP SWAP2 SWAP1 POP JUMP JUMPDEST PUSH1 0x0 PUSH20 0xFFFFFFFFFFFFFFFFFFFFFFFFFFFFFFFFFFFFFFFF DUP3 AND SWAP1 POP SWAP2 SWAP1 POP JUMP JUMPDEST PUSH1 0x0 DUP2 SWAP1 POP SWAP2 SWAP1 POP JUMP JUMPDEST DUP3 DUP2 DUP4 CALLDATACOPY PUSH1 0x0 DUP4 DUP4 ADD MSTORE POP POP POP JUMP JUMPDEST PUSH1 0x0 JUMPDEST DUP4 DUP2 LT ISZERO PUSH3 0x5DF JUMPI DUP1 DUP3 ADD MLOAD DUP2 DUP5 ADD MSTORE PUSH1 0x20 DUP2 ADD SWAP1 POP PUSH3 0x5C2 JUMP JUMPDEST DUP4 DUP2 GT ISZERO PUSH3 0x5EF JUMPI PUSH1 0x0 DUP5 DUP5 ADD MSTORE JUMPDEST POP POP POP POP JUMP JUMPDEST PUSH3 0x600 DUP3 PUSH3 0x6B4 JUMP JUMPDEST DUP2 ADD DUP2 DUP2 LT PUSH8 0xFFFFFFFFFFFFFFFF DUP3 GT OR ISZERO PUSH3 0x622 JUMPI PUSH3 0x621 PUSH3 0x671 JUMP JUMPDEST JUMPDEST DUP1 PUSH1 0x40 MSTORE POP POP POP JUMP JUMPDEST PUSH1 0x0 PUSH3 0x638 DUP3 PUSH3 0x653 JUMP JUMPDEST SWAP1 POP SWAP2 SWAP1 POP JUMP JUMPDEST PUSH1 0x0 DUP2 SWAP1 POP SWAP2 SWAP1 POP JUMP JUMPDEST PUSH1 0x0 DUP2 SWAP1 POP SWAP2 SWAP1 POP JUMP JUMPDEST PUSH1 0x0 PUSH3 0x660 DUP3 PUSH3 0x6C5 JUMP JUMPDEST SWAP1 POP SWAP2 SWAP1 POP JUMP JUMPDEST PUSH1 0x0 DUP2 SWAP1 POP SWAP2 SWAP1 POP JUMP JUMPDEST PUSH32 0x4E487B7100000000000000000000000000000000000000000000000000000000 PUSH1 0x0 MSTORE PUSH1 0x41 PUSH1 0x4 MSTORE PUSH1 0x24 PUSH1 0x0 REVERT JUMPDEST PUSH1 0x0 DUP1 REVERT JUMPDEST PUSH1 0x0 DUP1 REVERT JUMPDEST PUSH1 0x0 DUP1 REVERT JUMPDEST PUSH1 0x0 DUP1 REVERT JUMPDEST PUSH1 0x0 PUSH1 0x1F NOT PUSH1 0x1F DUP4 ADD AND SWAP1 POP SWAP2 SWAP1 POP JUMP JUMPDEST PUSH1 0x0 DUP2 PUSH1 0x60 SHL SWAP1 POP SWAP2 SWAP1 POP JUMP JUMPDEST PUSH3 0x6DD DUP2 PUSH3 0x5A6 JUMP JUMPDEST DUP2 EQ PUSH3 0x6E9 JUMPI PUSH1 0x0 DUP1 REVERT JUMPDEST POP JUMP INVALID PUSH1 0x80 PUSH1 0x40 MSTORE PUSH7 0x11C37937E08000 PUSH1 0xCE SSTORE CALLVALUE DUP1 ISZERO PUSH3 0x1C JUMPI PUSH1 0x0 DUP1 REVERT JUMPDEST POP PUSH1 0x0 PUSH1 0x1 SWAP1 SLOAD SWAP1 PUSH2 0x100 EXP SWAP1 DIV PUSH1 0xFF AND PUSH3 0x47 JUMPI PUSH1 0x0 DUP1 SLOAD SWAP1 PUSH2 0x100 EXP SWAP1 DIV PUSH1 0xFF AND ISZERO PUSH3 0x58 JUMP JUMPDEST PUSH3 0x57 PUSH3 0x114 PUSH1 0x20 SHL PUSH1 0x20 SHR JUMP JUMPDEST JUMPDEST PUSH3 0x9A JUMPI PUSH1 0x40 MLOAD PUSH32 0x8C379A000000000000000000000000000000000000000000000000000000000 DUP2 MSTORE PUSH1 0x4 ADD PUSH3 0x91 SWAP1 PUSH3 0x17C JUMP JUMPDEST PUSH1 0x40 MLOAD DUP1 SWAP2 SUB SWAP1 REVERT JUMPDEST PUSH1 0x0 DUP1 PUSH1 0x1 SWAP1 SLOAD SWAP1 PUSH2 0x100 EXP SWAP1 DIV PUSH1 0xFF AND ISZERO SWAP1 POP DUP1 ISZERO PUSH3 0xEB JUMPI PUSH1 0x1 PUSH1 0x0 PUSH1 0x1 PUSH2 0x100 EXP DUP2 SLOAD DUP2 PUSH1 0xFF MUL NOT AND SWAP1 DUP4 ISZERO ISZERO MUL OR SWAP1 SSTORE POP PUSH1 0x1 PUSH1 0x0 DUP1 PUSH2 0x100 EXP DUP2 SLOAD DUP2 PUSH1 0xFF MUL NOT AND SWAP1 DUP4 ISZERO ISZERO MUL OR SWAP1 SSTORE POP JUMPDEST DUP1 ISZERO PUSH3 0x10D JUMPI PUSH1 0x0 DUP1 PUSH1 0x1 PUSH2 0x100 EXP DUP2 SLOAD DUP2 PUSH1 0xFF MUL NOT AND SWAP1 DUP4 ISZERO ISZERO MUL OR SWAP1 SSTORE POP JUMPDEST POP PUSH3 0x1FE JUMP JUMPDEST PUSH1 0x0 PUSH3 0x12C ADDRESS PUSH3 0x132 PUSH1 0x20 SHL PUSH3 0x17AC OR PUSH1 0x20 SHR JUMP JUMPDEST ISZERO SWAP1 POP SWAP1 JUMP JUMPDEST PUSH1 0x0 DUP1 DUP3 PUSH20 0xFFFFFFFFFFFFFFFFFFFFFFFFFFFFFFFFFFFFFFFF AND EXTCODESIZE GT SWAP1 POP SWAP2 SWAP1 POP JUMP JUMPDEST PUSH1 0x0 PUSH3 0x164 PUSH1 0x2E DUP4 PUSH3 0x19E JUMP JUMPDEST SWAP2 POP PUSH3 0x171 DUP3 PUSH3 0x1AF JUMP JUMPDEST PUSH1 0x40 DUP3 ADD SWAP1 POP SWAP2 SWAP1 POP JUMP JUMPDEST PUSH1 0x0 PUSH1 0x20 DUP3 ADD SWAP1 POP DUP2 DUP2 SUB PUSH1 0x0 DUP4 ADD MSTORE PUSH3 0x197 DUP2 PUSH3 0x155 JUMP JUMPDEST SWAP1 POP SWAP2 SWAP1 POP JUMP JUMPDEST PUSH1 0x0 DUP3 DUP3 MSTORE PUSH1 0x20 DUP3 ADD SWAP1 POP SWAP3 SWAP2 POP POP JUMP JUMPDEST PUSH32 0x496E697469616C697A61626C653A20636F6E747261637420697320616C726561 PUSH1 0x0 DUP3 ADD MSTORE PUSH32 0x647920696E697469616C697A6564000000000000000000000000000000000000 PUSH1 0x20 DUP3 ADD MSTORE POP JUMP JUMPDEST PUSH2 0x3C70 DUP1 PUSH3 0x20E PUSH1 0x0 CODECOPY PUSH1 0x0 RETURN INVALID PUSH1 0x80 PUSH1 0x40 MSTORE PUSH1 0x4 CALLDATASIZE LT PUSH2 0x1D8 JUMPI PUSH1 0x0 CALLDATALOAD PUSH1 0xE0 SHR DUP1 PUSH4 0x6352211E GT PUSH2 0x102 JUMPI DUP1 PUSH4 0xB88D4FDE GT PUSH2 0x95 JUMPI DUP1 PUSH4 0xE6FD48BC GT PUSH2 0x64 JUMPI DUP1 PUSH4 0xE6FD48BC EQ PUSH2 0x6C0 JUMPI DUP1 PUSH4 0xE97DCB62 EQ PUSH2 0x6EB JUMPI DUP1 PUSH4 0xE985E9C5 EQ PUSH2 0x6F5 JUMPI DUP1 PUSH4 0xF2FDE38B EQ PUSH2 0x732 JUMPI PUSH2 0x1D8 JUMP JUMPDEST DUP1 PUSH4 0xB88D4FDE EQ PUSH2 0x5F2 JUMPI DUP1 PUSH4 0xC6C5D565 EQ PUSH2 0x61B JUMPI DUP1 PUSH4 0xC87B56DD EQ PUSH2 0x658 JUMPI DUP1 PUSH4 0xDBDFF2C1 EQ PUSH2 0x695 JUMPI PUSH2 0x1D8 JUMP JUMPDEST DUP1 PUSH4 0x8DA5CB5B GT PUSH2 0xD1 JUMPI DUP1 PUSH4 0x8DA5CB5B EQ PUSH2 0x548 JUMPI DUP1 PUSH4 0x8EFF3C29 EQ PUSH2 0x573 JUMPI DUP1 PUSH4 0x95D89B41 EQ PUSH2 0x59E JUMPI DUP1 PUSH4 0xA22CB465 EQ PUSH2 0x5C9 JUMPI PUSH2 0x1D8 JUMP JUMPDEST DUP1 PUSH4 0x6352211E EQ PUSH2 0x4A0 JUMPI DUP1 PUSH4 0x70A08231 EQ PUSH2 0x4DD JUMPI DUP1 PUSH4 0x715018A6 EQ PUSH2 0x51A JUMPI DUP1 PUSH4 0x8129FC1C EQ PUSH2 0x531 JUMPI PUSH2 0x1D8 JUMP JUMPDEST DUP1 PUSH4 0x23B872DD GT PUSH2 0x17A JUMPI DUP1 PUSH4 0x42842E0E GT PUSH2 0x149 JUMPI DUP1 PUSH4 0x42842E0E EQ PUSH2 0x40C JUMPI DUP1 PUSH4 0x46951954 EQ PUSH2 0x435 JUMPI DUP1 PUSH4 0x52D1902D EQ PUSH2 0x45E JUMPI DUP1 PUSH4 0x5D495AEA EQ PUSH2 0x489 JUMPI PUSH2 0x1D8 JUMP JUMPDEST DUP1 PUSH4 0x23B872DD EQ PUSH2 0x32C JUMPI DUP1 PUSH4 0x244D381B EQ PUSH2 0x355 JUMPI DUP1 PUSH4 0x281D098D EQ PUSH2 0x392 JUMPI DUP1 PUSH4 0x34461067 EQ PUSH2 0x3CF JUMPI PUSH2 0x1D8 JUMP JUMPDEST DUP1 PUSH4 0x81812FC GT PUSH2 0x1B6 JUMPI DUP1 PUSH4 0x81812FC EQ PUSH2 0x270 JUMPI DUP1 PUSH4 0x95EA7B3 EQ PUSH2 0x2AD JUMPI DUP1 PUSH4 0x12065FE0 EQ PUSH2 0x2D6 JUMPI DUP1 PUSH4 0x13FAEDE6 EQ PUSH2 0x301 JUMPI PUSH2 0x1D8 JUMP JUMPDEST DUP1 PUSH4 0x1FFC9A7 EQ PUSH2 0x1DD JUMPI DUP1 PUSH4 0x6D62E1F EQ PUSH2 0x21A JUMPI DUP1 PUSH4 0x6FDDE03 EQ PUSH2 0x245 JUMPI JUMPDEST PUSH1 0x0 DUP1 REVERT JUMPDEST CALLVALUE DUP1 ISZERO PUSH2 0x1E9 JUMPI PUSH1 0x0 DUP1 REVERT JUMPDEST POP PUSH2 0x204 PUSH1 0x4 DUP1 CALLDATASIZE SUB DUP2 ADD SWAP1 PUSH2 0x1FF SWAP2 SWAP1 PUSH2 0x2985 JUMP JUMPDEST PUSH2 0x75B JUMP JUMPDEST PUSH1 0x40 MLOAD PUSH2 0x211 SWAP2 SWAP1 PUSH2 0x2F17 JUMP JUMPDEST PUSH1 0x40 MLOAD DUP1 SWAP2 SUB SWAP1 RETURN JUMPDEST CALLVALUE DUP1 ISZERO PUSH2 0x226 JUMPI PUSH1 0x0 DUP1 REVERT JUMPDEST POP PUSH2 0x22F PUSH2 0x83D JUMP JUMPDEST PUSH1 0x40 MLOAD PUSH2 0x23C SWAP2 SWAP1 PUSH2 0x31AF JUMP JUMPDEST PUSH1 0x40 MLOAD DUP1 SWAP2 SUB SWAP1 RETURN JUMPDEST CALLVALUE DUP1 ISZERO PUSH2 0x251 JUMPI PUSH1 0x0 DUP1 REVERT JUMPDEST POP PUSH2 0x25A PUSH2 0x843 JUMP JUMPDEST PUSH1 0x40 MLOAD PUSH2 0x267 SWAP2 SWAP1 PUSH2 0x2F4D JUMP JUMPDEST PUSH1 0x40 MLOAD DUP1 SWAP2 SUB SWAP1 RETURN JUMPDEST CALLVALUE DUP1 ISZERO PUSH2 0x27C JUMPI PUSH1 0x0 DUP1 REVERT JUMPDEST POP PUSH2 0x297 PUSH1 0x4 DUP1 CALLDATASIZE SUB DUP2 ADD SWAP1 PUSH2 0x292 SWAP2 SWAP1 PUSH2 0x29DF JUMP JUMPDEST PUSH2 0x8D5 JUMP JUMPDEST PUSH1 0x40 MLOAD PUSH2 0x2A4 SWAP2 SWAP1 PUSH2 0x2E73 JUMP JUMPDEST PUSH1 0x40 MLOAD DUP1 SWAP2 SUB SWAP1 RETURN JUMPDEST CALLVALUE DUP1 ISZERO PUSH2 0x2B9 JUMPI PUSH1 0x0 DUP1 REVERT JUMPDEST POP PUSH2 0x2D4 PUSH1 0x4 DUP1 CALLDATASIZE SUB DUP2 ADD SWAP1 PUSH2 0x2CF SWAP2 SWAP1 PUSH2 0x2918 JUMP JUMPDEST PUSH2 0x95A JUMP JUMPDEST STOP JUMPDEST CALLVALUE DUP1 ISZERO PUSH2 0x2E2 JUMPI PUSH1 0x0 DUP1 REVERT JUMPDEST POP PUSH2 0x2EB PUSH2 0xA72 JUMP JUMPDEST PUSH1 0x40 MLOAD PUSH2 0x2F8 SWAP2 SWAP1 PUSH2 0x31AF JUMP JUMPDEST PUSH1 0x40 MLOAD DUP1 SWAP2 SUB SWAP1 RETURN JUMPDEST CALLVALUE DUP1 ISZERO PUSH2 0x30D JUMPI PUSH1 0x0 DUP1 REVERT JUMPDEST POP PUSH2 0x316 PUSH2 0xA7A JUMP JUMPDEST PUSH1 0x40 MLOAD PUSH2 0x323 SWAP2 SWAP1 PUSH2 0x31AF JUMP JUMPDEST PUSH1 0x40 MLOAD DUP1 SWAP2 SUB SWAP1 RETURN JUMPDEST CALLVALUE DUP1 ISZERO PUSH2 0x338 JUMPI PUSH1 0x0 DUP1 REVERT JUMPDEST POP PUSH2 0x353 PUSH1 0x4 DUP1 CALLDATASIZE SUB DUP2 ADD SWAP1 PUSH2 0x34E SWAP2 SWAP1 PUSH2 0x2802 JUMP JUMPDEST PUSH2 0xA80 JUMP JUMPDEST STOP JUMPDEST CALLVALUE DUP1 ISZERO PUSH2 0x361 JUMPI PUSH1 0x0 DUP1 REVERT JUMPDEST POP PUSH2 0x37C PUSH1 0x4 DUP1 CALLDATASIZE SUB DUP2 ADD SWAP1 PUSH2 0x377 SWAP2 SWAP1 PUSH2 0x29DF JUMP JUMPDEST PUSH2 0xAE0 JUMP JUMPDEST PUSH1 0x40 MLOAD PUSH2 0x389 SWAP2 SWAP1 PUSH2 0x2E8E JUMP JUMPDEST PUSH1 0x40 MLOAD DUP1 SWAP2 SUB SWAP1 RETURN JUMPDEST CALLVALUE DUP1 ISZERO PUSH2 0x39E JUMPI PUSH1 0x0 DUP1 REVERT JUMPDEST POP PUSH2 0x3B9 PUSH1 0x4 DUP1 CALLDATASIZE SUB DUP2 ADD SWAP1 PUSH2 0x3B4 SWAP2 SWAP1 PUSH2 0x29DF JUMP JUMPDEST PUSH2 0xB13 JUMP JUMPDEST PUSH1 0x40 MLOAD PUSH2 0x3C6 SWAP2 SWAP1 PUSH2 0x2E8E JUMP JUMPDEST PUSH1 0x40 MLOAD DUP1 SWAP2 SUB SWAP1 RETURN JUMPDEST CALLVALUE DUP1 ISZERO PUSH2 0x3DB JUMPI PUSH1 0x0 DUP1 REVERT JUMPDEST POP PUSH2 0x3F6 PUSH1 0x4 DUP1 CALLDATASIZE SUB DUP2 ADD SWAP1 PUSH2 0x3F1 SWAP2 SWAP1 PUSH2 0x29DF JUMP JUMPDEST PUSH2 0xB50 JUMP JUMPDEST PUSH1 0x40 MLOAD PUSH2 0x403 SWAP2 SWAP1 PUSH2 0x2E8E JUMP JUMPDEST PUSH1 0x40 MLOAD DUP1 SWAP2 SUB SWAP1 RETURN JUMPDEST CALLVALUE DUP1 ISZERO PUSH2 0x418 JUMPI PUSH1 0x0 DUP1 REVERT JUMPDEST POP PUSH2 0x433 PUSH1 0x4 DUP1 CALLDATASIZE SUB DUP2 ADD SWAP1 PUSH2 0x42E SWAP2 SWAP1 PUSH2 0x2802 JUMP JUMPDEST PUSH2 0xB8F JUMP JUMPDEST STOP JUMPDEST CALLVALUE DUP1 ISZERO PUSH2 0x441 JUMPI PUSH1 0x0 DUP1 REVERT JUMPDEST POP PUSH2 0x45C PUSH1 0x4 DUP1 CALLDATASIZE SUB DUP2 ADD SWAP1 PUSH2 0x457 SWAP2 SWAP1 PUSH2 0x2795 JUMP JUMPDEST PUSH2 0xBAF JUMP JUMPDEST STOP JUMPDEST CALLVALUE DUP1 ISZERO PUSH2 0x46A JUMPI PUSH1 0x0 DUP1 REVERT JUMPDEST POP PUSH2 0x473 PUSH2 0xC37 JUMP JUMPDEST PUSH1 0x40 MLOAD PUSH2 0x480 SWAP2 SWAP1 PUSH2 0x2F32 JUMP JUMPDEST PUSH1 0x40 MLOAD DUP1 SWAP2 SUB SWAP1 RETURN JUMPDEST CALLVALUE DUP1 ISZERO PUSH2 0x495 JUMPI PUSH1 0x0 DUP1 REVERT JUMPDEST POP PUSH2 0x49E PUSH2 0xC62 JUMP JUMPDEST STOP JUMPDEST CALLVALUE DUP1 ISZERO PUSH2 0x4AC JUMPI PUSH1 0x0 DUP1 REVERT JUMPDEST POP PUSH2 0x4C7 PUSH1 0x4 DUP1 CALLDATASIZE SUB DUP2 ADD SWAP1 PUSH2 0x4C2 SWAP2 SWAP1 PUSH2 0x29DF JUMP JUMPDEST PUSH2 0xEA4 JUMP JUMPDEST PUSH1 0x40 MLOAD PUSH2 0x4D4 SWAP2 SWAP1 PUSH2 0x2E73 JUMP JUMPDEST PUSH1 0x40 MLOAD DUP1 SWAP2 SUB SWAP1 RETURN JUMPDEST CALLVALUE DUP1 ISZERO PUSH2 0x4E9 JUMPI PUSH1 0x0 DUP1 REVERT JUMPDEST POP PUSH2 0x504 PUSH1 0x4 DUP1 CALLDATASIZE SUB DUP2 ADD SWAP1 PUSH2 0x4FF SWAP2 SWAP1 PUSH2 0x2795 JUMP JUMPDEST PUSH2 0xF56 JUMP JUMPDEST PUSH1 0x40 MLOAD PUSH2 0x511 SWAP2 SWAP1 PUSH2 0x31AF JUMP JUMPDEST PUSH1 0x40 MLOAD DUP1 SWAP2 SUB SWAP1 RETURN JUMPDEST CALLVALUE DUP1 ISZERO PUSH2 0x526 JUMPI PUSH1 0x0 DUP1 REVERT JUMPDEST POP PUSH2 0x52F PUSH2 0x100E JUMP JUMPDEST STOP JUMPDEST CALLVALUE DUP1 ISZERO PUSH2 0x53D JUMPI PUSH1 0x0 DUP1 REVERT JUMPDEST POP PUSH2 0x546 PUSH2 0x1096 JUMP JUMPDEST STOP JUMPDEST CALLVALUE DUP1 ISZERO PUSH2 0x554 JUMPI PUSH1 0x0 DUP1 REVERT JUMPDEST POP PUSH2 0x55D PUSH2 0x1199 JUMP JUMPDEST PUSH1 0x40 MLOAD PUSH2 0x56A SWAP2 SWAP1 PUSH2 0x2E73 JUMP JUMPDEST PUSH1 0x40 MLOAD DUP1 SWAP2 SUB SWAP1 RETURN JUMPDEST CALLVALUE DUP1 ISZERO PUSH2 0x57F JUMPI PUSH1 0x0 DUP1 REVERT JUMPDEST POP PUSH2 0x588 PUSH2 0x11C3 JUMP JUMPDEST PUSH1 0x40 MLOAD PUSH2 0x595 SWAP2 SWAP1 PUSH2 0x2EF5 JUMP JUMPDEST PUSH1 0x40 MLOAD DUP1 SWAP2 SUB SWAP1 RETURN JUMPDEST CALLVALUE DUP1 ISZERO PUSH2 0x5AA JUMPI PUSH1 0x0 DUP1 REVERT JUMPDEST POP PUSH2 0x5B3 PUSH2 0x1251 JUMP JUMPDEST PUSH1 0x40 MLOAD PUSH2 0x5C0 SWAP2 SWAP1 PUSH2 0x2F4D JUMP JUMPDEST PUSH1 0x40 MLOAD DUP1 SWAP2 SUB SWAP1 RETURN JUMPDEST CALLVALUE DUP1 ISZERO PUSH2 0x5D5 JUMPI PUSH1 0x0 DUP1 REVERT JUMPDEST POP PUSH2 0x5F0 PUSH1 0x4 DUP1 CALLDATASIZE SUB DUP2 ADD SWAP1 PUSH2 0x5EB SWAP2 SWAP1 PUSH2 0x28D8 JUMP JUMPDEST PUSH2 0x12E3 JUMP JUMPDEST STOP JUMPDEST CALLVALUE DUP1 ISZERO PUSH2 0x5FE JUMPI PUSH1 0x0 DUP1 REVERT JUMPDEST POP PUSH2 0x619 PUSH1 0x4 DUP1 CALLDATASIZE SUB DUP2 ADD SWAP1 PUSH2 0x614 SWAP2 SWAP1 PUSH2 0x2855 JUMP JUMPDEST PUSH2 0x12F9 JUMP JUMPDEST STOP JUMPDEST CALLVALUE DUP1 ISZERO PUSH2 0x627 JUMPI PUSH1 0x0 DUP1 REVERT JUMPDEST POP PUSH2 0x642 PUSH1 0x4 DUP1 CALLDATASIZE SUB DUP2 ADD SWAP1 PUSH2 0x63D SWAP2 SWAP1 PUSH2 0x29DF JUMP JUMPDEST PUSH2 0x135B JUMP JUMPDEST PUSH1 0x40 MLOAD PUSH2 0x64F SWAP2 SWAP1 PUSH2 0x2F4D JUMP JUMPDEST PUSH1 0x40 MLOAD DUP1 SWAP2 SUB SWAP1 RETURN JUMPDEST CALLVALUE DUP1 ISZERO PUSH2 0x664 JUMPI PUSH1 0x0 DUP1 REVERT JUMPDEST POP PUSH2 0x67F PUSH1 0x4 DUP1 CALLDATASIZE SUB DUP2 ADD SWAP1 PUSH2 0x67A SWAP2 SWAP1 PUSH2 0x29DF JUMP JUMPDEST PUSH2 0x1451 JUMP JUMPDEST PUSH1 0x40 MLOAD PUSH2 0x68C SWAP2 SWAP1 PUSH2 0x2F4D JUMP JUMPDEST PUSH1 0x40 MLOAD DUP1 SWAP2 SUB SWAP1 RETURN JUMPDEST CALLVALUE DUP1 ISZERO PUSH2 0x6A1 JUMPI PUSH1 0x0 DUP1 REVERT JUMPDEST POP PUSH2 0x6AA PUSH2 0x14F8 JUMP JUMPDEST PUSH1 0x40 MLOAD PUSH2 0x6B7 SWAP2 SWAP1 PUSH2 0x31AF JUMP JUMPDEST PUSH1 0x40 MLOAD DUP1 SWAP2 SUB SWAP1 RETURN JUMPDEST CALLVALUE DUP1 ISZERO PUSH2 0x6CC JUMPI PUSH1 0x0 DUP1 REVERT JUMPDEST POP PUSH2 0x6D5 PUSH2 0x1537 JUMP JUMPDEST PUSH1 0x40 MLOAD PUSH2 0x6E2 SWAP2 SWAP1 PUSH2 0x31AF JUMP JUMPDEST PUSH1 0x40 MLOAD DUP1 SWAP2 SUB SWAP1 RETURN JUMPDEST PUSH2 0x6F3 PUSH2 0x153D JUMP JUMPDEST STOP JUMPDEST CALLVALUE DUP1 ISZERO PUSH2 0x701 JUMPI PUSH1 0x0 DUP1 REVERT JUMPDEST POP PUSH2 0x71C PUSH1 0x4 DUP1 CALLDATASIZE SUB DUP2 ADD SWAP1 PUSH2 0x717 SWAP2 SWAP1 PUSH2 0x27C2 JUMP JUMPDEST PUSH2 0x1620 JUMP JUMPDEST PUSH1 0x40 MLOAD PUSH2 0x729 SWAP2 SWAP1 PUSH2 0x2F17 JUMP JUMPDEST PUSH1 0x40 MLOAD DUP1 SWAP2 SUB SWAP1 RETURN JUMPDEST CALLVALUE DUP1 ISZERO PUSH2 0x73E JUMPI PUSH1 0x0 DUP1 REVERT JUMPDEST POP PUSH2 0x759 PUSH1 0x4 DUP1 CALLDATASIZE SUB DUP2 ADD SWAP1 PUSH2 0x754 SWAP2 SWAP1 PUSH2 0x2795 JUMP JUMPDEST PUSH2 0x16B4 JUMP JUMPDEST STOP JUMPDEST PUSH1 0x0 PUSH32 0x80AC58CD00000000000000000000000000000000000000000000000000000000 PUSH28 0xFFFFFFFFFFFFFFFFFFFFFFFFFFFFFFFFFFFFFFFFFFFFFFFFFFFFFFFF NOT AND DUP3 PUSH28 0xFFFFFFFFFFFFFFFFFFFFFFFFFFFFFFFFFFFFFFFFFFFFFFFFFFFFFFFF NOT AND EQ DUP1 PUSH2 0x826 JUMPI POP PUSH32 0x5B5E139F00000000000000000000000000000000000000000000000000000000 PUSH28 0xFFFFFFFFFFFFFFFFFFFFFFFFFFFFFFFFFFFFFFFFFFFFFFFFFFFFFFFF NOT AND DUP3 PUSH28 0xFFFFFFFFFFFFFFFFFFFFFFFFFFFFFFFFFFFFFFFFFFFFFFFFFFFFFFFF NOT AND EQ JUMPDEST DUP1 PUSH2 0x836 JUMPI POP PUSH2 0x835 DUP3 PUSH2 0x17CF JUMP JUMPDEST JUMPDEST SWAP1 POP SWAP2 SWAP1 POP JUMP JUMPDEST PUSH1 0xCC SLOAD DUP2 JUMP JUMPDEST PUSH1 0x60 PUSH1 0x97 DUP1 SLOAD PUSH2 0x852 SWAP1 PUSH2 0x3483 JUMP JUMPDEST DUP1 PUSH1 0x1F ADD PUSH1 0x20 DUP1 SWAP2 DIV MUL PUSH1 0x20 ADD PUSH1 0x40 MLOAD SWAP1 DUP2 ADD PUSH1 0x40 MSTORE DUP1 SWAP3 SWAP2 SWAP1 DUP2 DUP2 MSTORE PUSH1 0x20 ADD DUP3 DUP1 SLOAD PUSH2 0x87E SWAP1 PUSH2 0x3483 JUMP JUMPDEST DUP1 ISZERO PUSH2 0x8CB JUMPI DUP1 PUSH1 0x1F LT PUSH2 0x8A0 JUMPI PUSH2 0x100 DUP1 DUP4 SLOAD DIV MUL DUP4 MSTORE SWAP2 PUSH1 0x20 ADD SWAP2 PUSH2 0x8CB JUMP JUMPDEST DUP3 ADD SWAP2 SWAP1 PUSH1 0x0 MSTORE PUSH1 0x20 PUSH1 0x0 KECCAK256 SWAP1 JUMPDEST DUP2 SLOAD DUP2 MSTORE SWAP1 PUSH1 0x1 ADD SWAP1 PUSH1 0x20 ADD DUP1 DUP4 GT PUSH2 0x8AE JUMPI DUP3 SWAP1 SUB PUSH1 0x1F AND DUP3 ADD SWAP2 JUMPDEST POP POP POP POP POP SWAP1 POP SWAP1 JUMP JUMPDEST PUSH1 0x0 PUSH2 0x8E0 DUP3 PUSH2 0x1839 JUMP JUMPDEST PUSH2 0x91F JUMPI PUSH1 0x40 MLOAD PUSH32 0x8C379A000000000000000000000000000000000000000000000000000000000 DUP2 MSTORE PUSH1 0x4 ADD PUSH2 0x916 SWAP1 PUSH2 0x30EF JUMP JUMPDEST PUSH1 0x40 MLOAD DUP1 SWAP2 SUB SWAP1 REVERT JUMPDEST PUSH1 0x9B PUSH1 0x0 DUP4 DUP2 MSTORE PUSH1 0x20 ADD SWAP1 DUP2 MSTORE PUSH1 0x20 ADD PUSH1 0x0 KECCAK256 PUSH1 0x0 SWAP1 SLOAD SWAP1 PUSH2 0x100 EXP SWAP1 DIV PUSH20 0xFFFFFFFFFFFFFFFFFFFFFFFFFFFFFFFFFFFFFFFF AND SWAP1 POP SWAP2 SWAP1 POP JUMP JUMPDEST PUSH1 0x0 PUSH2 0x965 DUP3 PUSH2 0xEA4 JUMP JUMPDEST SWAP1 POP DUP1 PUSH20 0xFFFFFFFFFFFFFFFFFFFFFFFFFFFFFFFFFFFFFFFF AND DUP4 PUSH20 0xFFFFFFFFFFFFFFFFFFFFFFFFFFFFFFFFFFFFFFFF AND EQ ISZERO PUSH2 0x9D6 JUMPI PUSH1 0x40 MLOAD PUSH32 0x8C379A000000000000000000000000000000000000000000000000000000000 DUP2 MSTORE PUSH1 0x4 ADD PUSH2 0x9CD SWAP1 PUSH2 0x314F JUMP JUMPDEST PUSH1 0x40 MLOAD DUP1 SWAP2 SUB SWAP1 REVERT JUMPDEST DUP1 PUSH20 0xFFFFFFFFFFFFFFFFFFFFFFFFFFFFFFFFFFFFFFFF AND PUSH2 0x9F5 PUSH2 0x18A5 JUMP JUMPDEST PUSH20 0xFFFFFFFFFFFFFFFFFFFFFFFFFFFFFFFFFFFFFFFF AND EQ DUP1 PUSH2 0xA24 JUMPI POP PUSH2 0xA23 DUP2 PUSH2 0xA1E PUSH2 0x18A5 JUMP JUMPDEST PUSH2 0x1620 JUMP JUMPDEST JUMPDEST PUSH2 0xA63 JUMPI PUSH1 0x40 MLOAD PUSH32 0x8C379A000000000000000000000000000000000000000000000000000000000 DUP2 MSTORE PUSH1 0x4 ADD PUSH2 0xA5A SWAP1 PUSH2 0x306F JUMP JUMPDEST PUSH1 0x40 MLOAD DUP1 SWAP2 SUB SWAP1 REVERT JUMPDEST PUSH2 0xA6D DUP4 DUP4 PUSH2 0x18AD JUMP JUMPDEST POP POP POP JUMP JUMPDEST PUSH1 0x0 SELFBALANCE SWAP1 POP SWAP1 JUMP JUMPDEST PUSH1 0xCE SLOAD DUP2 JUMP JUMPDEST PUSH2 0xA91 PUSH2 0xA8B PUSH2 0x18A5 JUMP JUMPDEST DUP3 PUSH2 0x1966 JUMP JUMPDEST PUSH2 0xAD0 JUMPI PUSH1 0x40 MLOAD PUSH32 0x8C379A000000000000000000000000000000000000000000000000000000000 DUP2 MSTORE PUSH1 0x4 ADD PUSH2 0xAC7 SWAP1 PUSH2 0x316F JUMP JUMPDEST PUSH1 0x40 MLOAD DUP1 SWAP2 SUB SWAP1 REVERT JUMPDEST PUSH2 0xADB DUP4 DUP4 DUP4 PUSH2 0x1A44 JUMP JUMPDEST POP POP POP JUMP JUMPDEST PUSH1 0xCF PUSH1 0x20 MSTORE DUP1 PUSH1 0x0 MSTORE PUSH1 0x40 PUSH1 0x0 KECCAK256 PUSH1 0x0 SWAP2 POP SLOAD SWAP1 PUSH2 0x100 EXP SWAP1 DIV PUSH20 0xFFFFFFFFFFFFFFFFFFFFFFFFFFFFFFFFFFFFFFFF AND DUP2 JUMP JUMPDEST PUSH1 0x0 PUSH1 0xCF PUSH1 0x0 DUP4 DUP2 MSTORE PUSH1 0x20 ADD SWAP1 DUP2 MSTORE PUSH1 0x20 ADD PUSH1 0x0 KECCAK256 PUSH1 0x0 SWAP1 SLOAD SWAP1 PUSH2 0x100 EXP SWAP1 DIV PUSH20 0xFFFFFFFFFFFFFFFFFFFFFFFFFFFFFFFFFFFFFFFF AND SWAP1 POP SWAP2 SWAP1 POP JUMP JUMPDEST PUSH1 0xCB DUP2 DUP2 SLOAD DUP2 LT PUSH2 0xB60 JUMPI PUSH1 0x0 DUP1 REVERT JUMPDEST SWAP1 PUSH1 0x0 MSTORE PUSH1 0x20 PUSH1 0x0 KECCAK256 ADD PUSH1 0x0 SWAP2 POP SLOAD SWAP1 PUSH2 0x100 EXP SWAP1 DIV PUSH20 0xFFFFFFFFFFFFFFFFFFFFFFFFFFFFFFFFFFFFFFFF AND DUP2 JUMP JUMPDEST PUSH2 0xBAA DUP4 DUP4 DUP4 PUSH1 0x40 MLOAD DUP1 PUSH1 0x20 ADD PUSH1 0x40 MSTORE DUP1 PUSH1 0x0 DUP2 MSTORE POP PUSH2 0x12F9 JUMP JUMPDEST POP POP POP JUMP JUMPDEST PUSH2 0xBB7 PUSH2 0x18A5 JUMP JUMPDEST PUSH20 0xFFFFFFFFFFFFFFFFFFFFFFFFFFFFFFFFFFFFFFFF AND PUSH2 0xBD5 PUSH2 0x1199 JUMP JUMPDEST PUSH20 0xFFFFFFFFFFFFFFFFFFFFFFFFFFFFFFFFFFFFFFFF AND EQ PUSH2 0xC2B JUMPI PUSH1 0x40 MLOAD PUSH32 0x8C379A000000000000000000000000000000000000000000000000000000000 DUP2 MSTORE PUSH1 0x4 ADD PUSH2 0xC22 SWAP1 PUSH2 0x310F JUMP JUMPDEST PUSH1 0x40 MLOAD DUP1 SWAP2 SUB SWAP1 REVERT JUMPDEST PUSH2 0xC34 DUP2 PUSH2 0x1CAB JUMP JUMPDEST POP JUMP JUMPDEST PUSH1 0x0 PUSH32 0xC5F16F0FCC639FA48A6947836D9850F504798523BF8C9A3A87D5876CF622BCF7 PUSH1 0x0 SHL SWAP1 POP SWAP1 JUMP JUMPDEST PUSH2 0xC6A PUSH2 0x18A5 JUMP JUMPDEST PUSH20 0xFFFFFFFFFFFFFFFFFFFFFFFFFFFFFFFFFFFFFFFF AND PUSH2 0xC88 PUSH2 0x1199 JUMP JUMPDEST PUSH20 0xFFFFFFFFFFFFFFFFFFFFFFFFFFFFFFFFFFFFFFFF AND EQ PUSH2 0xCDE JUMPI PUSH1 0x40 MLOAD PUSH32 0x8C379A000000000000000000000000000000000000000000000000000000000 DUP2 MSTORE PUSH1 0x4 ADD PUSH2 0xCD5 SWAP1 PUSH2 0x310F JUMP JUMPDEST PUSH1 0x40 MLOAD DUP1 SWAP2 SUB SWAP1 REVERT JUMPDEST PUSH1 0x0 PUSH1 0xCB DUP1 SLOAD SWAP1 POP PUSH2 0xCEE PUSH2 0x14F8 JUMP JUMPDEST PUSH2 0xCF8 SWAP2 SWAP1 PUSH2 0x355D JUMP JUMPDEST SWAP1 POP PUSH1 0xCB DUP2 DUP2 SLOAD DUP2 LT PUSH2 0xD0E JUMPI PUSH2 0xD0D PUSH2 0x361B JUMP JUMPDEST JUMPDEST SWAP1 PUSH1 0x0 MSTORE PUSH1 0x20 PUSH1 0x0 KECCAK256 ADD PUSH1 0x0 SWAP1 SLOAD SWAP1 PUSH2 0x100 EXP SWAP1 DIV PUSH20 0xFFFFFFFFFFFFFFFFFFFFFFFFFFFFFFFFFFFFFFFF AND PUSH20 0xFFFFFFFFFFFFFFFFFFFFFFFFFFFFFFFFFFFFFFFF AND PUSH2 0x8FC PUSH1 0x64 PUSH1 0x32 SELFBALANCE PUSH2 0xD61 SWAP2 SWAP1 PUSH2 0x3323 JUMP JUMPDEST PUSH2 0xD6B SWAP2 SWAP1 PUSH2 0x32F2 JUMP JUMPDEST SWAP1 DUP2 ISZERO MUL SWAP1 PUSH1 0x40 MLOAD PUSH1 0x0 PUSH1 0x40 MLOAD DUP1 DUP4 SUB DUP2 DUP6 DUP9 DUP9 CALL SWAP4 POP POP POP POP ISZERO DUP1 ISZERO PUSH2 0xD96 JUMPI RETURNDATASIZE PUSH1 0x0 DUP1 RETURNDATACOPY RETURNDATASIZE PUSH1 0x0 REVERT JUMPDEST POP PUSH1 0xCB DUP2 DUP2 SLOAD DUP2 LT PUSH2 0xDAB JUMPI PUSH2 0xDAA PUSH2 0x361B JUMP JUMPDEST JUMPDEST SWAP1 PUSH1 0x0 MSTORE PUSH1 0x20 PUSH1 0x0 KECCAK256 ADD PUSH1 0x0 SWAP1 SLOAD SWAP1 PUSH2 0x100 EXP SWAP1 DIV PUSH20 0xFFFFFFFFFFFFFFFFFFFFFFFFFFFFFFFFFFFFFFFF AND PUSH1 0xCF PUSH1 0x0 PUSH1 0xCC SLOAD DUP2 MSTORE PUSH1 0x20 ADD SWAP1 DUP2 MSTORE PUSH1 0x20 ADD PUSH1 0x0 KECCAK256 PUSH1 0x0 PUSH2 0x100 EXP DUP2 SLOAD DUP2 PUSH20 0xFFFFFFFFFFFFFFFFFFFFFFFFFFFFFFFFFFFFFFFF MUL NOT AND SWAP1 DUP4 PUSH20 0xFFFFFFFFFFFFFFFFFFFFFFFFFFFFFFFFFFFFFFFF AND MUL OR SWAP1 SSTORE POP PUSH1 0xCC PUSH1 0x0 DUP2 SLOAD DUP1 SWAP3 SWAP2 SWAP1 PUSH2 0xE3C SWAP1 PUSH2 0x34E6 JUMP JUMPDEST SWAP2 SWAP1 POP SSTORE POP PUSH1 0x0 PUSH8 0xFFFFFFFFFFFFFFFF DUP2 GT ISZERO PUSH2 0xE5C JUMPI PUSH2 0xE5B PUSH2 0x364A JUMP JUMPDEST JUMPDEST PUSH1 0x40 MLOAD SWAP1 DUP1 DUP3 MSTORE DUP1 PUSH1 0x20 MUL PUSH1 0x20 ADD DUP3 ADD PUSH1 0x40 MSTORE DUP1 ISZERO PUSH2 0xE8A JUMPI DUP2 PUSH1 0x20 ADD PUSH1 0x20 DUP3 MUL DUP1 CALLDATASIZE DUP4 CALLDATACOPY DUP1 DUP3 ADD SWAP2 POP POP SWAP1 POP JUMPDEST POP PUSH1 0xCB SWAP1 DUP1 MLOAD SWAP1 PUSH1 0x20 ADD SWAP1 PUSH2 0xEA0 SWAP3 SWAP2 SWAP1 PUSH2 0x257A JUMP JUMPDEST POP POP JUMP JUMPDEST PUSH1 0x0 DUP1 PUSH1 0x99 PUSH1 0x0 DUP5 DUP2 MSTORE PUSH1 0x20 ADD SWAP1 DUP2 MSTORE PUSH1 0x20 ADD PUSH1 0x0 KECCAK256 PUSH1 0x0 SWAP1 SLOAD SWAP1 PUSH2 0x100 EXP SWAP1 DIV PUSH20 0xFFFFFFFFFFFFFFFFFFFFFFFFFFFFFFFFFFFFFFFF AND SWAP1 POP PUSH1 0x0 PUSH20 0xFFFFFFFFFFFFFFFFFFFFFFFFFFFFFFFFFFFFFFFF AND DUP2 PUSH20 0xFFFFFFFFFFFFFFFFFFFFFFFFFFFFFFFFFFFFFFFF AND EQ ISZERO PUSH2 0xF4D JUMPI PUSH1 0x40 MLOAD PUSH32 0x8C379A000000000000000000000000000000000000000000000000000000000 DUP2 MSTORE PUSH1 0x4 ADD PUSH2 0xF44 SWAP1 PUSH2 0x30AF JUMP JUMPDEST PUSH1 0x40 MLOAD DUP1 SWAP2 SUB SWAP1 REVERT JUMPDEST DUP1 SWAP2 POP POP SWAP2 SWAP1 POP JUMP JUMPDEST PUSH1 0x0 DUP1 PUSH20 0xFFFFFFFFFFFFFFFFFFFFFFFFFFFFFFFFFFFFFFFF AND DUP3 PUSH20 0xFFFFFFFFFFFFFFFFFFFFFFFFFFFFFFFFFFFFFFFF AND EQ ISZERO PUSH2 0xFC7 JUMPI PUSH1 0x40 MLOAD PUSH32 0x8C379A000000000000000000000000000000000000000000000000000000000 DUP2 MSTORE PUSH1 0x4 ADD PUSH2 0xFBE SWAP1 PUSH2 0x308F JUMP JUMPDEST PUSH1 0x40 MLOAD DUP1 SWAP2 SUB SWAP1 REVERT JUMPDEST PUSH1 0x9A PUSH1 0x0 DUP4 PUSH20 0xFFFFFFFFFFFFFFFFFFFFFFFFFFFFFFFFFFFFFFFF AND PUSH20 0xFFFFFFFFFFFFFFFFFFFFFFFFFFFFFFFFFFFFFFFF AND DUP2 MSTORE PUSH1 0x20 ADD SWAP1 DUP2 MSTORE PUSH1 0x20 ADD PUSH1 0x0 KECCAK256 SLOAD SWAP1 POP SWAP2 SWAP1 POP JUMP JUMPDEST PUSH2 0x1016 PUSH2 0x18A5 JUMP JUMPDEST PUSH20 0xFFFFFFFFFFFFFFFFFFFFFFFFFFFFFFFFFFFFFFFF AND PUSH2 0x1034 PUSH2 0x1199 JUMP JUMPDEST PUSH20 0xFFFFFFFFFFFFFFFFFFFFFFFFFFFFFFFFFFFFFFFF AND EQ PUSH2 0x108A JUMPI PUSH1 0x40 MLOAD PUSH32 0x8C379A000000000000000000000000000000000000000000000000000000000 DUP2 MSTORE PUSH1 0x4 ADD PUSH2 0x1081 SWAP1 PUSH2 0x310F JUMP JUMPDEST PUSH1 0x40 MLOAD DUP1 SWAP2 SUB SWAP1 REVERT JUMPDEST PUSH2 0x1094 PUSH1 0x0 PUSH2 0x1DB3 JUMP JUMPDEST JUMP JUMPDEST PUSH1 0x0 PUSH1 0x1 SWAP1 SLOAD SWAP1 PUSH2 0x100 EXP SWAP1 DIV PUSH1 0xFF AND PUSH2 0x10BE JUMPI PUSH1 0x0 DUP1 SLOAD SWAP1 PUSH2 0x100 EXP SWAP1 DIV PUSH1 0xFF AND ISZERO PUSH2 0x10C7 JUMP JUMPDEST PUSH2 0x10C6 PUSH2 0x1E79 JUMP JUMPDEST JUMPDEST PUSH2 0x1106 JUMPI PUSH1 0x40 MLOAD PUSH32 0x8C379A000000000000000000000000000000000000000000000000000000000 DUP2 MSTORE PUSH1 0x4 ADD PUSH2 0x10FD SWAP1 PUSH2 0x30CF JUMP JUMPDEST PUSH1 0x40 MLOAD DUP1 SWAP2 SUB SWAP1 REVERT JUMPDEST PUSH1 0x0 DUP1 PUSH1 0x1 SWAP1 SLOAD SWAP1 PUSH2 0x100 EXP SWAP1 DIV PUSH1 0xFF AND ISZERO SWAP1 POP DUP1 ISZERO PUSH2 0x1156 JUMPI PUSH1 0x1 PUSH1 0x0 PUSH1 0x1 PUSH2 0x100 EXP DUP2 SLOAD DUP2 PUSH1 0xFF MUL NOT AND SWAP1 DUP4 ISZERO ISZERO MUL OR SWAP1 SSTORE POP PUSH1 0x1 PUSH1 0x0 DUP1 PUSH2 0x100 EXP DUP2 SLOAD DUP2 PUSH1 0xFF MUL NOT AND SWAP1 DUP4 ISZERO ISZERO MUL OR SWAP1 SSTORE POP JUMPDEST PUSH2 0x115E PUSH2 0x1E8A JUMP JUMPDEST PUSH1 0x1 PUSH1 0xCC DUP2 SWAP1 SSTORE POP TIMESTAMP PUSH1 0xCD DUP2 SWAP1 SSTORE POP PUSH2 0x1175 PUSH2 0x1EE3 JUMP JUMPDEST DUP1 ISZERO PUSH2 0x1196 JUMPI PUSH1 0x0 DUP1 PUSH1 0x1 PUSH2 0x100 EXP DUP2 SLOAD DUP2 PUSH1 0xFF MUL NOT AND SWAP1 DUP4 ISZERO ISZERO MUL OR SWAP1 SSTORE POP JUMPDEST POP JUMP JUMPDEST PUSH1 0x0 PUSH1 0x33 PUSH1 0x0 SWAP1 SLOAD SWAP1 PUSH2 0x100 EXP SWAP1 DIV PUSH20 0xFFFFFFFFFFFFFFFFFFFFFFFFFFFFFFFFFFFFFFFF AND SWAP1 POP SWAP1 JUMP JUMPDEST PUSH1 0x60 PUSH1 0xCB DUP1 SLOAD DUP1 PUSH1 0x20 MUL PUSH1 0x20 ADD PUSH1 0x40 MLOAD SWAP1 DUP2 ADD PUSH1 0x40 MSTORE DUP1 SWAP3 SWAP2 SWAP1 DUP2 DUP2 MSTORE PUSH1 0x20 ADD DUP3 DUP1 SLOAD DUP1 ISZERO PUSH2 0x1247 JUMPI PUSH1 0x20 MUL DUP3 ADD SWAP2 SWAP1 PUSH1 0x0 MSTORE PUSH1 0x20 PUSH1 0x0 KECCAK256 SWAP1 JUMPDEST DUP2 PUSH1 0x0 SWAP1 SLOAD SWAP1 PUSH2 0x100 EXP SWAP1 DIV PUSH20 0xFFFFFFFFFFFFFFFFFFFFFFFFFFFFFFFFFFFFFFFF AND PUSH20 0xFFFFFFFFFFFFFFFFFFFFFFFFFFFFFFFFFFFFFFFF AND DUP2 MSTORE PUSH1 0x20 ADD SWAP1 PUSH1 0x1 ADD SWAP1 DUP1 DUP4 GT PUSH2 0x11FD JUMPI JUMPDEST POP POP POP POP POP SWAP1 POP SWAP1 JUMP JUMPDEST PUSH1 0x60 PUSH1 0x98 DUP1 SLOAD PUSH2 0x1260 SWAP1 PUSH2 0x3483 JUMP JUMPDEST DUP1 PUSH1 0x1F ADD PUSH1 0x20 DUP1 SWAP2 DIV MUL PUSH1 0x20 ADD PUSH1 0x40 MLOAD SWAP1 DUP2 ADD PUSH1 0x40 MSTORE DUP1 SWAP3 SWAP2 SWAP1 DUP2 DUP2 MSTORE PUSH1 0x20 ADD DUP3 DUP1 SLOAD PUSH2 0x128C SWAP1 PUSH2 0x3483 JUMP JUMPDEST DUP1 ISZERO PUSH2 0x12D9 JUMPI DUP1 PUSH1 0x1F LT PUSH2 0x12AE JUMPI PUSH2 0x100 DUP1 DUP4 SLOAD DIV MUL DUP4 MSTORE SWAP2 PUSH1 0x20 ADD SWAP2 PUSH2 0x12D9 JUMP JUMPDEST DUP3 ADD SWAP2 SWAP1 PUSH1 0x0 MSTORE PUSH1 0x20 PUSH1 0x0 KECCAK256 SWAP1 JUMPDEST DUP2 SLOAD DUP2 MSTORE SWAP1 PUSH1 0x1 ADD SWAP1 PUSH1 0x20 ADD DUP1 DUP4 GT PUSH2 0x12BC JUMPI DUP3 SWAP1 SUB PUSH1 0x1F AND DUP3 ADD SWAP2 JUMPDEST POP POP POP POP POP SWAP1 POP SWAP1 JUMP JUMPDEST PUSH2 0x12F5 PUSH2 0x12EE PUSH2 0x18A5 JUMP JUMPDEST DUP4 DUP4 PUSH2 0x1F59 JUMP JUMPDEST POP POP JUMP JUMPDEST PUSH2 0x130A PUSH2 0x1304 PUSH2 0x18A5 JUMP JUMPDEST DUP4 PUSH2 0x1966 JUMP JUMPDEST PUSH2 0x1349 JUMPI PUSH1 0x40 MLOAD PUSH32 0x8C379A000000000000000000000000000000000000000000000000000000000 DUP2 MSTORE PUSH1 0x4 ADD PUSH2 0x1340 SWAP1 PUSH2 0x316F JUMP JUMPDEST PUSH1 0x40 MLOAD DUP1 SWAP2 SUB SWAP1 REVERT JUMPDEST PUSH2 0x1355 DUP5 DUP5 DUP5 DUP5 PUSH2 0x20C6 JUMP JUMPDEST POP POP POP POP JUMP JUMPDEST PUSH1 0x60 PUSH2 0x1366 DUP3 PUSH2 0x1839 JUMP JUMPDEST PUSH2 0x13A5 JUMPI PUSH1 0x40 MLOAD PUSH32 0x8C379A000000000000000000000000000000000000000000000000000000000 DUP2 MSTORE PUSH1 0x4 ADD PUSH2 0x139C SWAP1 PUSH2 0x304F JUMP JUMPDEST PUSH1 0x40 MLOAD DUP1 SWAP2 SUB SWAP1 REVERT JUMPDEST PUSH1 0x0 PUSH1 0xCA PUSH1 0x0 DUP5 DUP2 MSTORE PUSH1 0x20 ADD SWAP1 DUP2 MSTORE PUSH1 0x20 ADD PUSH1 0x0 KECCAK256 PUSH1 0x0 ADD DUP1 SLOAD PUSH2 0x13C8 SWAP1 PUSH2 0x3483 JUMP JUMPDEST DUP1 PUSH1 0x1F ADD PUSH1 0x20 DUP1 SWAP2 DIV MUL PUSH1 0x20 ADD PUSH1 0x40 MLOAD SWAP1 DUP2 ADD PUSH1 0x40 MSTORE DUP1 SWAP3 SWAP2 SWAP1 DUP2 DUP2 MSTORE PUSH1 0x20 ADD DUP3 DUP1 SLOAD PUSH2 0x13F4 SWAP1 PUSH2 0x3483 JUMP JUMPDEST DUP1 ISZERO PUSH2 0x1441 JUMPI DUP1 PUSH1 0x1F LT PUSH2 0x1416 JUMPI PUSH2 0x100 DUP1 DUP4 SLOAD DIV MUL DUP4 MSTORE SWAP2 PUSH1 0x20 ADD SWAP2 PUSH2 0x1441 JUMP JUMPDEST DUP3 ADD SWAP2 SWAP1 PUSH1 0x0 MSTORE PUSH1 0x20 PUSH1 0x0 KECCAK256 SWAP1 JUMPDEST DUP2 SLOAD DUP2 MSTORE SWAP1 PUSH1 0x1 ADD SWAP1 PUSH1 0x20 ADD DUP1 DUP4 GT PUSH2 0x1424 JUMPI DUP3 SWAP1 SUB PUSH1 0x1F AND DUP3 ADD SWAP2 JUMPDEST POP POP POP POP POP SWAP1 POP DUP1 SWAP2 POP POP SWAP2 SWAP1 POP JUMP JUMPDEST PUSH1 0x60 PUSH2 0x145C DUP3 PUSH2 0x1839 JUMP JUMPDEST PUSH2 0x149B JUMPI PUSH1 0x40 MLOAD PUSH32 0x8C379A000000000000000000000000000000000000000000000000000000000 DUP2 MSTORE PUSH1 0x4 ADD PUSH2 0x1492 SWAP1 PUSH2 0x312F JUMP JUMPDEST PUSH1 0x40 MLOAD DUP1 SWAP2 SUB SWAP1 REVERT JUMPDEST PUSH1 0x0 PUSH2 0x14A5 PUSH2 0x2122 JUMP JUMPDEST SWAP1 POP PUSH1 0x0 DUP2 MLOAD GT PUSH2 0x14C5 JUMPI PUSH1 0x40 MLOAD DUP1 PUSH1 0x20 ADD PUSH1 0x40 MSTORE DUP1 PUSH1 0x0 DUP2 MSTORE POP PUSH2 0x14F0 JUMP JUMPDEST DUP1 PUSH2 0x14CF DUP5 PUSH2 0x2139 JUMP JUMPDEST PUSH1 0x40 MLOAD PUSH1 0x20 ADD PUSH2 0x14E0 SWAP3 SWAP2 SWAP1 PUSH2 0x2E4F JUMP JUMPDEST PUSH1 0x40 MLOAD PUSH1 0x20 DUP2 DUP4 SUB SUB DUP2 MSTORE SWAP1 PUSH1 0x40 MSTORE JUMPDEST SWAP2 POP POP SWAP2 SWAP1 POP JUMP JUMPDEST PUSH1 0x0 DUP1 PUSH2 0x1503 PUSH2 0x1199 JUMP JUMPDEST SWAP1 POP DUP1 TIMESTAMP PUSH1 0x40 MLOAD PUSH1 0x20 ADD PUSH2 0x1518 SWAP3 SWAP2 SWAP1 PUSH2 0x2E23 JUMP JUMPDEST PUSH1 0x40 MLOAD PUSH1 0x20 DUP2 DUP4 SUB SUB DUP2 MSTORE SWAP1 PUSH1 0x40 MSTORE DUP1 MLOAD SWAP1 PUSH1 0x20 ADD KECCAK256 PUSH1 0x0 SHR SWAP2 POP POP SWAP1 JUMP JUMPDEST PUSH1 0xCD SLOAD DUP2 JUMP JUMPDEST PUSH1 0x3C PUSH1 0xCD SLOAD PUSH2 0x154C SWAP2 SWAP1 PUSH2 0x329C JUMP JUMPDEST TIMESTAMP LT ISZERO DUP1 ISZERO PUSH2 0x1569 JUMPI POP PUSH1 0x64 PUSH1 0xCD SLOAD PUSH2 0x1565 SWAP2 SWAP1 PUSH2 0x329C JUMP JUMPDEST TIMESTAMP GT ISZERO JUMPDEST PUSH2 0x1572 JUMPI PUSH1 0x0 DUP1 REVERT JUMPDEST PUSH1 0x0 PUSH20 0xFFFFFFFFFFFFFFFFFFFFFFFFFFFFFFFFFFFFFFFF AND CALLER PUSH20 0xFFFFFFFFFFFFFFFFFFFFFFFFFFFFFFFFFFFFFFFF AND EQ ISZERO PUSH2 0x15AC JUMPI PUSH1 0x0 DUP1 REVERT JUMPDEST PUSH1 0xCE SLOAD CALLVALUE LT ISZERO PUSH2 0x15BB JUMPI PUSH1 0x0 DUP1 REVERT JUMPDEST PUSH1 0xCB CALLER SWAP1 DUP1 PUSH1 0x1 DUP2 SLOAD ADD DUP1 DUP3 SSTORE DUP1 SWAP2 POP POP PUSH1 0x1 SWAP1 SUB SWAP1 PUSH1 0x0 MSTORE PUSH1 0x20 PUSH1 0x0 KECCAK256 ADD PUSH1 0x0 SWAP1 SWAP2 SWAP1 SWAP2 SWAP1 SWAP2 PUSH2 0x100 EXP DUP2 SLOAD DUP2 PUSH20 0xFFFFFFFFFFFFFFFFFFFFFFFFFFFFFFFFFFFFFFFF MUL NOT AND SWAP1 DUP4 PUSH20 0xFFFFFFFFFFFFFFFFFFFFFFFFFFFFFFFFFFFFFFFF AND MUL OR SWAP1 SSTORE POP JUMP JUMPDEST PUSH1 0x0 PUSH1 0x9C PUSH1 0x0 DUP5 PUSH20 0xFFFFFFFFFFFFFFFFFFFFFFFFFFFFFFFFFFFFFFFF AND PUSH20 0xFFFFFFFFFFFFFFFFFFFFFFFFFFFFFFFFFFFFFFFF AND DUP2 MSTORE PUSH1 0x20 ADD SWAP1 DUP2 MSTORE PUSH1 0x20 ADD PUSH1 0x0 KECCAK256 PUSH1 0x0 DUP4 PUSH20 0xFFFFFFFFFFFFFFFFFFFFFFFFFFFFFFFFFFFFFFFF AND PUSH20 0xFFFFFFFFFFFFFFFFFFFFFFFFFFFFFFFFFFFFFFFF AND DUP2 MSTORE PUSH1 0x20 ADD SWAP1 DUP2 MSTORE PUSH1 0x20 ADD PUSH1 0x0 KECCAK256 PUSH1 0x0 SWAP1 SLOAD SWAP1 PUSH2 0x100 EXP SWAP1 DIV PUSH1 0xFF AND SWAP1 POP SWAP3 SWAP2 POP POP JUMP JUMPDEST PUSH2 0x16BC PUSH2 0x18A5 JUMP JUMPDEST PUSH20 0xFFFFFFFFFFFFFFFFFFFFFFFFFFFFFFFFFFFFFFFF AND PUSH2 0x16DA PUSH2 0x1199 JUMP JUMPDEST PUSH20 0xFFFFFFFFFFFFFFFFFFFFFFFFFFFFFFFFFFFFFFFF AND EQ PUSH2 0x1730 JUMPI PUSH1 0x40 MLOAD PUSH32 0x8C379A000000000000000000000000000000000000000000000000000000000 DUP2 MSTORE PUSH1 0x4 ADD PUSH2 0x1727 SWAP1 PUSH2 0x310F JUMP JUMPDEST PUSH1 0x40 MLOAD DUP1 SWAP2 SUB SWAP1 REVERT JUMPDEST PUSH1 0x0 PUSH20 0xFFFFFFFFFFFFFFFFFFFFFFFFFFFFFFFFFFFFFFFF AND DUP2 PUSH20 0xFFFFFFFFFFFFFFFFFFFFFFFFFFFFFFFFFFFFFFFF AND EQ ISZERO PUSH2 0x17A0 JUMPI PUSH1 0x40 MLOAD PUSH32 0x8C379A000000000000000000000000000000000000000000000000000000000 DUP2 MSTORE PUSH1 0x4 ADD PUSH2 0x1797 SWAP1 PUSH2 0x2FAF JUMP JUMPDEST PUSH1 0x40 MLOAD DUP1 SWAP2 SUB SWAP1 REVERT JUMPDEST PUSH2 0x17A9 DUP2 PUSH2 0x1DB3 JUMP JUMPDEST POP JUMP JUMPDEST PUSH1 0x0 DUP1 DUP3 PUSH20 0xFFFFFFFFFFFFFFFFFFFFFFFFFFFFFFFFFFFFFFFF AND EXTCODESIZE GT SWAP1 POP SWAP2 SWAP1 POP JUMP JUMPDEST PUSH1 0x0 PUSH32 0x1FFC9A700000000000000000000000000000000000000000000000000000000 PUSH28 0xFFFFFFFFFFFFFFFFFFFFFFFFFFFFFFFFFFFFFFFFFFFFFFFFFFFFFFFF NOT AND DUP3 PUSH28 0xFFFFFFFFFFFFFFFFFFFFFFFFFFFFFFFFFFFFFFFFFFFFFFFFFFFFFFFF NOT AND EQ SWAP1 POP SWAP2 SWAP1 POP JUMP JUMPDEST PUSH1 0x0 DUP1 PUSH20 0xFFFFFFFFFFFFFFFFFFFFFFFFFFFFFFFFFFFFFFFF AND PUSH1 0x99 PUSH1 0x0 DUP5 DUP2 MSTORE PUSH1 0x20 ADD SWAP1 DUP2 MSTORE PUSH1 0x20 ADD PUSH1 0x0 KECCAK256 PUSH1 0x0 SWAP1 SLOAD SWAP1 PUSH2 0x100 EXP SWAP1 DIV PUSH20 0xFFFFFFFFFFFFFFFFFFFFFFFFFFFFFFFFFFFFFFFF AND PUSH20 0xFFFFFFFFFFFFFFFFFFFFFFFFFFFFFFFFFFFFFFFF AND EQ ISZERO SWAP1 POP SWAP2 SWAP1 POP JUMP JUMPDEST PUSH1 0x0 CALLER SWAP1 POP SWAP1 JUMP JUMPDEST DUP2 PUSH1 0x9B PUSH1 0x0 DUP4 DUP2 MSTORE PUSH1 0x20 ADD SWAP1 DUP2 MSTORE PUSH1 0x20 ADD PUSH1 0x0 KECCAK256 PUSH1 0x0 PUSH2 0x100 EXP DUP2 SLOAD DUP2 PUSH20 0xFFFFFFFFFFFFFFFFFFFFFFFFFFFFFFFFFFFFFFFF MUL NOT AND SWAP1 DUP4 PUSH20 0xFFFFFFFFFFFFFFFFFFFFFFFFFFFFFFFFFFFFFFFF AND MUL OR SWAP1 SSTORE POP DUP1 DUP3 PUSH20 0xFFFFFFFFFFFFFFFFFFFFFFFFFFFFFFFFFFFFFFFF AND PUSH2 0x1920 DUP4 PUSH2 0xEA4 JUMP JUMPDEST PUSH20 0xFFFFFFFFFFFFFFFFFFFFFFFFFFFFFFFFFFFFFFFF AND PUSH32 0x8C5BE1E5EBEC7D5BD14F71427D1E84F3DD0314C0F7B2291E5B200AC8C7C3B925 PUSH1 0x40 MLOAD PUSH1 0x40 MLOAD DUP1 SWAP2 SUB SWAP1 LOG4 POP POP JUMP JUMPDEST PUSH1 0x0 PUSH2 0x1971 DUP3 PUSH2 0x1839 JUMP JUMPDEST PUSH2 0x19B0 JUMPI PUSH1 0x40 MLOAD PUSH32 0x8C379A000000000000000000000000000000000000000000000000000000000 DUP2 MSTORE PUSH1 0x4 ADD PUSH2 0x19A7 SWAP1 PUSH2 0x302F JUMP JUMPDEST PUSH1 0x40 MLOAD DUP1 SWAP2 SUB SWAP1 REVERT JUMPDEST PUSH1 0x0 PUSH2 0x19BB DUP4 PUSH2 0xEA4 JUMP JUMPDEST SWAP1 POP DUP1 PUSH20 0xFFFFFFFFFFFFFFFFFFFFFFFFFFFFFFFFFFFFFFFF AND DUP5 PUSH20 0xFFFFFFFFFFFFFFFFFFFFFFFFFFFFFFFFFFFFFFFF AND EQ DUP1 PUSH2 0x1A2A JUMPI POP DUP4 PUSH20 0xFFFFFFFFFFFFFFFFFFFFFFFFFFFFFFFFFFFFFFFF AND PUSH2 0x1A12 DUP5 PUSH2 0x8D5 JUMP JUMPDEST PUSH20 0xFFFFFFFFFFFFFFFFFFFFFFFFFFFFFFFFFFFFFFFF AND EQ JUMPDEST DUP1 PUSH2 0x1A3B JUMPI POP PUSH2 0x1A3A DUP2 DUP6 PUSH2 0x1620 JUMP JUMPDEST JUMPDEST SWAP2 POP POP SWAP3 SWAP2 POP POP JUMP JUMPDEST DUP3 PUSH20 0xFFFFFFFFFFFFFFFFFFFFFFFFFFFFFFFFFFFFFFFF AND PUSH2 0x1A64 DUP3 PUSH2 0xEA4 JUMP JUMPDEST PUSH20 0xFFFFFFFFFFFFFFFFFFFFFFFFFFFFFFFFFFFFFFFF AND EQ PUSH2 0x1ABA JUMPI PUSH1 0x40 MLOAD PUSH32 0x8C379A000000000000000000000000000000000000000000000000000000000 DUP2 MSTORE PUSH1 0x4 ADD PUSH2 0x1AB1 SWAP1 PUSH2 0x2FCF JUMP JUMPDEST PUSH1 0x40 MLOAD DUP1 SWAP2 SUB SWAP1 REVERT JUMPDEST PUSH1 0x0 PUSH20 0xFFFFFFFFFFFFFFFFFFFFFFFFFFFFFFFFFFFFFFFF AND DUP3 PUSH20 0xFFFFFFFFFFFFFFFFFFFFFFFFFFFFFFFFFFFFFFFF AND EQ ISZERO PUSH2 0x1B2A JUMPI PUSH1 0x40 MLOAD PUSH32 0x8C379A000000000000000000000000000000000000000000000000000000000 DUP2 MSTORE PUSH1 0x4 ADD PUSH2 0x1B21 SWAP1 PUSH2 0x2FEF JUMP JUMPDEST PUSH1 0x40 MLOAD DUP1 SWAP2 SUB SWAP1 REVERT JUMPDEST PUSH2 0x1B35 DUP4 DUP4 DUP4 PUSH2 0x229A JUMP JUMPDEST PUSH2 0x1B40 PUSH1 0x0 DUP3 PUSH2 0x18AD JUMP JUMPDEST PUSH1 0x1 PUSH1 0x9A PUSH1 0x0 DUP6 PUSH20 0xFFFFFFFFFFFFFFFFFFFFFFFFFFFFFFFFFFFFFFFF AND PUSH20 0xFFFFFFFFFFFFFFFFFFFFFFFFFFFFFFFFFFFFFFFF AND DUP2 MSTORE PUSH1 0x20 ADD SWAP1 DUP2 MSTORE PUSH1 0x20 ADD PUSH1 0x0 KECCAK256 PUSH1 0x0 DUP3 DUP3 SLOAD PUSH2 0x1B90 SWAP2 SWAP1 PUSH2 0x337D JUMP JUMPDEST SWAP3 POP POP DUP2 SWAP1 SSTORE POP PUSH1 0x1 PUSH1 0x9A PUSH1 0x0 DUP5 PUSH20 0xFFFFFFFFFFFFFFFFFFFFFFFFFFFFFFFFFFFFFFFF AND PUSH20 0xFFFFFFFFFFFFFFFFFFFFFFFFFFFFFFFFFFFFFFFF AND DUP2 MSTORE PUSH1 0x20 ADD SWAP1 DUP2 MSTORE PUSH1 0x20 ADD PUSH1 0x0 KECCAK256 PUSH1 0x0 DUP3 DUP3 SLOAD PUSH2 0x1BE7 SWAP2 SWAP1 PUSH2 0x329C JUMP JUMPDEST SWAP3 POP POP DUP2 SWAP1 SSTORE POP DUP2 PUSH1 0x99 PUSH1 0x0 DUP4 DUP2 MSTORE PUSH1 0x20 ADD SWAP1 DUP2 MSTORE PUSH1 0x20 ADD PUSH1 0x0 KECCAK256 PUSH1 0x0 PUSH2 0x100 EXP DUP2 SLOAD DUP2 PUSH20 0xFFFFFFFFFFFFFFFFFFFFFFFFFFFFFFFFFFFFFFFF MUL NOT AND SWAP1 DUP4 PUSH20 0xFFFFFFFFFFFFFFFFFFFFFFFFFFFFFFFFFFFFFFFF AND MUL OR SWAP1 SSTORE POP DUP1 DUP3 PUSH20 0xFFFFFFFFFFFFFFFFFFFFFFFFFFFFFFFFFFFFFFFF AND DUP5 PUSH20 0xFFFFFFFFFFFFFFFFFFFFFFFFFFFFFFFFFFFFFFFF AND PUSH32 0xDDF252AD1BE2C89B69C2B068FC378DAA952BA7F163C4A11628F55A4DF523B3EF PUSH1 0x40 MLOAD PUSH1 0x40 MLOAD DUP1 SWAP2 SUB SWAP1 LOG4 PUSH2 0x1CA6 DUP4 DUP4 DUP4 PUSH2 0x229F JUMP JUMPDEST POP POP POP JUMP JUMPDEST DUP1 PUSH20 0xFFFFFFFFFFFFFFFFFFFFFFFFFFFFFFFFFFFFFFFF AND PUSH4 0x52D1902D PUSH1 0x40 MLOAD DUP2 PUSH4 0xFFFFFFFF AND PUSH1 0xE0 SHL DUP2 MSTORE PUSH1 0x4 ADD PUSH1 0x20 PUSH1 0x40 MLOAD DUP1 DUP4 SUB DUP2 DUP7 DUP1 EXTCODESIZE ISZERO DUP1 ISZERO PUSH2 0x1CF1 JUMPI PUSH1 0x0 DUP1 REVERT JUMPDEST POP GAS STATICCALL ISZERO DUP1 ISZERO PUSH2 0x1D05 JUMPI RETURNDATASIZE PUSH1 0x0 DUP1 RETURNDATACOPY RETURNDATASIZE PUSH1 0x0 REVERT JUMPDEST POP POP POP POP PUSH1 0x40 MLOAD RETURNDATASIZE PUSH1 0x1F NOT PUSH1 0x1F DUP3 ADD AND DUP3 ADD DUP1 PUSH1 0x40 MSTORE POP DUP2 ADD SWAP1 PUSH2 0x1D29 SWAP2 SWAP1 PUSH2 0x2958 JUMP JUMPDEST PUSH32 0xC5F16F0FCC639FA48A6947836D9850F504798523BF8C9A3A87D5876CF622BCF7 PUSH1 0x0 SHL EQ PUSH2 0x1D8D JUMPI PUSH1 0x40 MLOAD PUSH32 0x8C379A000000000000000000000000000000000000000000000000000000000 DUP2 MSTORE PUSH1 0x4 ADD PUSH2 0x1D84 SWAP1 PUSH2 0x2F6F JUMP JUMPDEST PUSH1 0x40 MLOAD DUP1 SWAP2 SUB SWAP1 REVERT JUMPDEST DUP1 PUSH32 0xC5F16F0FCC639FA48A6947836D9850F504798523BF8C9A3A87D5876CF622BCF7 SSTORE POP JUMP JUMPDEST PUSH1 0x0 PUSH1 0x33 PUSH1 0x0 SWAP1 SLOAD SWAP1 PUSH2 0x100 EXP SWAP1 DIV PUSH20 0xFFFFFFFFFFFFFFFFFFFFFFFFFFFFFFFFFFFFFFFF AND SWAP1 POP DUP2 PUSH1 0x33 PUSH1 0x0 PUSH2 0x100 EXP DUP2 SLOAD DUP2 PUSH20 0xFFFFFFFFFFFFFFFFFFFFFFFFFFFFFFFFFFFFFFFF MUL NOT AND SWAP1 DUP4 PUSH20 0xFFFFFFFFFFFFFFFFFFFFFFFFFFFFFFFFFFFFFFFF AND MUL OR SWAP1 SSTORE POP DUP2 PUSH20 0xFFFFFFFFFFFFFFFFFFFFFFFFFFFFFFFFFFFFFFFF AND DUP2 PUSH20 0xFFFFFFFFFFFFFFFFFFFFFFFFFFFFFFFFFFFFFFFF AND PUSH32 0x8BE0079C531659141344CD1FD0A4F28419497F9722A3DAAFE3B4186F6B6457E0 PUSH1 0x40 MLOAD PUSH1 0x40 MLOAD DUP1 SWAP2 SUB SWAP1 LOG3 POP POP JUMP JUMPDEST PUSH1 0x0 PUSH2 0x1E84 ADDRESS PUSH2 0x17AC JUMP JUMPDEST ISZERO SWAP1 POP SWAP1 JUMP JUMPDEST PUSH1 0x0 PUSH1 0x1 SWAP1 SLOAD SWAP1 PUSH2 0x100 EXP SWAP1 DIV PUSH1 0xFF AND PUSH2 0x1ED9 JUMPI PUSH1 0x40 MLOAD PUSH32 0x8C379A000000000000000000000000000000000000000000000000000000000 DUP2 MSTORE PUSH1 0x4 ADD PUSH2 0x1ED0 SWAP1 PUSH2 0x318F JUMP JUMPDEST PUSH1 0x40 MLOAD DUP1 SWAP2 SUB SWAP1 REVERT JUMPDEST PUSH2 0x1EE1 PUSH2 0x22A4 JUMP JUMPDEST JUMP JUMPDEST PUSH2 0x1F57 PUSH1 0x40 MLOAD DUP1 PUSH1 0x40 ADD PUSH1 0x40 MSTORE DUP1 PUSH1 0x6 DUP2 MSTORE PUSH1 0x20 ADD PUSH32 0x5469636B65740000000000000000000000000000000000000000000000000000 DUP2 MSTORE POP PUSH1 0x40 MLOAD DUP1 PUSH1 0x40 ADD PUSH1 0x40 MSTORE DUP1 PUSH1 0x3 DUP2 MSTORE PUSH1 0x20 ADD PUSH32 0x544B540000000000000000000000000000000000000000000000000000000000 DUP2 MSTORE POP PUSH2 0x2305 JUMP JUMPDEST JUMP JUMPDEST DUP2 PUSH20 0xFFFFFFFFFFFFFFFFFFFFFFFFFFFFFFFFFFFFFFFF AND DUP4 PUSH20 0xFFFFFFFFFFFFFFFFFFFFFFFFFFFFFFFFFFFFFFFF AND EQ ISZERO PUSH2 0x1FC8 JUMPI PUSH1 0x40 MLOAD PUSH32 0x8C379A000000000000000000000000000000000000000000000000000000000 DUP2 MSTORE PUSH1 0x4 ADD PUSH2 0x1FBF SWAP1 PUSH2 0x300F JUMP JUMPDEST PUSH1 0x40 MLOAD DUP1 SWAP2 SUB SWAP1 REVERT JUMPDEST DUP1 PUSH1 0x9C PUSH1 0x0 DUP6 PUSH20 0xFFFFFFFFFFFFFFFFFFFFFFFFFFFFFFFFFFFFFFFF AND PUSH20 0xFFFFFFFFFFFFFFFFFFFFFFFFFFFFFFFFFFFFFFFF AND DUP2 MSTORE PUSH1 0x20 ADD SWAP1 DUP2 MSTORE PUSH1 0x20 ADD PUSH1 0x0 KECCAK256 PUSH1 0x0 DUP5 PUSH20 0xFFFFFFFFFFFFFFFFFFFFFFFFFFFFFFFFFFFFFFFF AND PUSH20 0xFFFFFFFFFFFFFFFFFFFFFFFFFFFFFFFFFFFFFFFF AND DUP2 MSTORE PUSH1 0x20 ADD SWAP1 DUP2 MSTORE PUSH1 0x20 ADD PUSH1 0x0 KECCAK256 PUSH1 0x0 PUSH2 0x100 EXP DUP2 SLOAD DUP2 PUSH1 0xFF MUL NOT AND SWAP1 DUP4 ISZERO ISZERO MUL OR SWAP1 SSTORE POP DUP2 PUSH20 0xFFFFFFFFFFFFFFFFFFFFFFFFFFFFFFFFFFFFFFFF AND DUP4 PUSH20 0xFFFFFFFFFFFFFFFFFFFFFFFFFFFFFFFFFFFFFFFF AND PUSH32 0x17307EAB39AB6107E8899845AD3D59BD9653F200F220920489CA2B5937696C31 DUP4 PUSH1 0x40 MLOAD PUSH2 0x20B9 SWAP2 SWAP1 PUSH2 0x2F17 JUMP JUMPDEST PUSH1 0x40 MLOAD DUP1 SWAP2 SUB SWAP1 LOG3 POP POP POP JUMP JUMPDEST PUSH2 0x20D1 DUP5 DUP5 DUP5 PUSH2 0x1A44 JUMP JUMPDEST PUSH2 0x20DD DUP5 DUP5 DUP5 DUP5 PUSH2 0x2362 JUMP JUMPDEST PUSH2 0x211C JUMPI PUSH1 0x40 MLOAD PUSH32 0x8C379A000000000000000000000000000000000000000000000000000000000 DUP2 MSTORE PUSH1 0x4 ADD PUSH2 0x2113 SWAP1 PUSH2 0x2F8F JUMP JUMPDEST PUSH1 0x40 MLOAD DUP1 SWAP2 SUB SWAP1 REVERT JUMPDEST POP POP POP POP JUMP JUMPDEST PUSH1 0x60 PUSH1 0x40 MLOAD DUP1 PUSH1 0x20 ADD PUSH1 0x40 MSTORE DUP1 PUSH1 0x0 DUP2 MSTORE POP SWAP1 POP SWAP1 JUMP JUMPDEST PUSH1 0x60 PUSH1 0x0 DUP3 EQ ISZERO PUSH2 0x2181 JUMPI PUSH1 0x40 MLOAD DUP1 PUSH1 0x40 ADD PUSH1 0x40 MSTORE DUP1 PUSH1 0x1 DUP2 MSTORE PUSH1 0x20 ADD PUSH32 0x3000000000000000000000000000000000000000000000000000000000000000 DUP2 MSTORE POP SWAP1 POP PUSH2 0x2295 JUMP JUMPDEST PUSH1 0x0 DUP3 SWAP1 POP PUSH1 0x0 JUMPDEST PUSH1 0x0 DUP3 EQ PUSH2 0x21B3 JUMPI DUP1 DUP1 PUSH2 0x219C SWAP1 PUSH2 0x34E6 JUMP JUMPDEST SWAP2 POP POP PUSH1 0xA DUP3 PUSH2 0x21AC SWAP2 SWAP1 PUSH2 0x32F2 JUMP JUMPDEST SWAP2 POP PUSH2 0x2189 JUMP JUMPDEST PUSH1 0x0 DUP2 PUSH8 0xFFFFFFFFFFFFFFFF DUP2 GT ISZERO PUSH2 0x21CF JUMPI PUSH2 0x21CE PUSH2 0x364A JUMP JUMPDEST JUMPDEST PUSH1 0x40 MLOAD SWAP1 DUP1 DUP3 MSTORE DUP1 PUSH1 0x1F ADD PUSH1 0x1F NOT AND PUSH1 0x20 ADD DUP3 ADD PUSH1 0x40 MSTORE DUP1 ISZERO PUSH2 0x2201 JUMPI DUP2 PUSH1 0x20 ADD PUSH1 0x1 DUP3 MUL DUP1 CALLDATASIZE DUP4 CALLDATACOPY DUP1 DUP3 ADD SWAP2 POP POP SWAP1 POP JUMPDEST POP SWAP1 POP JUMPDEST PUSH1 0x0 DUP6 EQ PUSH2 0x228E JUMPI PUSH1 0x1 DUP3 PUSH2 0x221A SWAP2 SWAP1 PUSH2 0x337D JUMP JUMPDEST SWAP2 POP PUSH1 0xA DUP6 PUSH2 0x2229 SWAP2 SWAP1 PUSH2 0x355D JUMP JUMPDEST PUSH1 0x30 PUSH2 0x2235 SWAP2 SWAP1 PUSH2 0x329C JUMP JUMPDEST PUSH1 0xF8 SHL DUP2 DUP4 DUP2 MLOAD DUP2 LT PUSH2 0x224B JUMPI PUSH2 0x224A PUSH2 0x361B JUMP JUMPDEST JUMPDEST PUSH1 0x20 ADD ADD SWAP1 PUSH31 0xFFFFFFFFFFFFFFFFFFFFFFFFFFFFFFFFFFFFFFFFFFFFFFFFFFFFFFFFFFFFFF NOT AND SWAP1 DUP2 PUSH1 0x0 BYTE SWAP1 MSTORE8 POP PUSH1 0xA DUP6 PUSH2 0x2287 SWAP2 SWAP1 PUSH2 0x32F2 JUMP JUMPDEST SWAP5 POP PUSH2 0x2205 JUMP JUMPDEST DUP1 SWAP4 POP POP POP POP JUMPDEST SWAP2 SWAP1 POP JUMP JUMPDEST POP POP POP JUMP JUMPDEST POP POP POP JUMP JUMPDEST PUSH1 0x0 PUSH1 0x1 SWAP1 SLOAD SWAP1 PUSH2 0x100 EXP SWAP1 DIV PUSH1 0xFF AND PUSH2 0x22F3 JUMPI PUSH1 0x40 MLOAD PUSH32 0x8C379A000000000000000000000000000000000000000000000000000000000 DUP2 MSTORE PUSH1 0x4 ADD PUSH2 0x22EA SWAP1 PUSH2 0x318F JUMP JUMPDEST PUSH1 0x40 MLOAD DUP1 SWAP2 SUB SWAP1 REVERT JUMPDEST PUSH2 0x2303 PUSH2 0x22FE PUSH2 0x18A5 JUMP JUMPDEST PUSH2 0x1DB3 JUMP JUMPDEST JUMP JUMPDEST PUSH1 0x0 PUSH1 0x1 SWAP1 SLOAD SWAP1 PUSH2 0x100 EXP SWAP1 DIV PUSH1 0xFF AND PUSH2 0x2354 JUMPI PUSH1 0x40 MLOAD PUSH32 0x8C379A000000000000000000000000000000000000000000000000000000000 DUP2 MSTORE PUSH1 0x4 ADD PUSH2 0x234B SWAP1 PUSH2 0x318F JUMP JUMPDEST PUSH1 0x40 MLOAD DUP1 SWAP2 SUB SWAP1 REVERT JUMPDEST PUSH2 0x235E DUP3 DUP3 PUSH2 0x24F9 JUMP JUMPDEST POP POP JUMP JUMPDEST PUSH1 0x0 PUSH2 0x2383 DUP5 PUSH20 0xFFFFFFFFFFFFFFFFFFFFFFFFFFFFFFFFFFFFFFFF AND PUSH2 0x17AC JUMP JUMPDEST ISZERO PUSH2 0x24EC JUMPI DUP4 PUSH20 0xFFFFFFFFFFFFFFFFFFFFFFFFFFFFFFFFFFFFFFFF AND PUSH4 0x150B7A02 PUSH2 0x23AC PUSH2 0x18A5 JUMP JUMPDEST DUP8 DUP7 DUP7 PUSH1 0x40 MLOAD DUP6 PUSH4 0xFFFFFFFF AND PUSH1 0xE0 SHL DUP2 MSTORE PUSH1 0x4 ADD PUSH2 0x23CE SWAP5 SWAP4 SWAP3 SWAP2 SWAP1 PUSH2 0x2EA9 JUMP JUMPDEST PUSH1 0x20 PUSH1 0x40 MLOAD DUP1 DUP4 SUB DUP2 PUSH1 0x0 DUP8 DUP1 EXTCODESIZE ISZERO DUP1 ISZERO PUSH2 0x23E8 JUMPI PUSH1 0x0 DUP1 REVERT JUMPDEST POP GAS CALL SWAP3 POP POP POP DUP1 ISZERO PUSH2 0x2419 JUMPI POP PUSH1 0x40 MLOAD RETURNDATASIZE PUSH1 0x1F NOT PUSH1 0x1F DUP3 ADD AND DUP3 ADD DUP1 PUSH1 0x40 MSTORE POP DUP2 ADD SWAP1 PUSH2 0x2416 SWAP2 SWAP1 PUSH2 0x29B2 JUMP JUMPDEST PUSH1 0x1 JUMPDEST PUSH2 0x249C JUMPI RETURNDATASIZE DUP1 PUSH1 0x0 DUP2 EQ PUSH2 0x2449 JUMPI PUSH1 0x40 MLOAD SWAP2 POP PUSH1 0x1F NOT PUSH1 0x3F RETURNDATASIZE ADD AND DUP3 ADD PUSH1 0x40 MSTORE RETURNDATASIZE DUP3 MSTORE RETURNDATASIZE PUSH1 0x0 PUSH1 0x20 DUP5 ADD RETURNDATACOPY PUSH2 0x244E JUMP JUMPDEST PUSH1 0x60 SWAP2 POP JUMPDEST POP PUSH1 0x0 DUP2 MLOAD EQ ISZERO PUSH2 0x2494 JUMPI PUSH1 0x40 MLOAD PUSH32 0x8C379A000000000000000000000000000000000000000000000000000000000 DUP2 MSTORE PUSH1 0x4 ADD PUSH2 0x248B SWAP1 PUSH2 0x2F8F JUMP JUMPDEST PUSH1 0x40 MLOAD DUP1 SWAP2 SUB SWAP1 REVERT JUMPDEST DUP1 MLOAD DUP2 PUSH1 0x20 ADD REVERT JUMPDEST PUSH4 0x150B7A02 PUSH1 0xE0 SHL PUSH28 0xFFFFFFFFFFFFFFFFFFFFFFFFFFFFFFFFFFFFFFFFFFFFFFFFFFFFFFFF NOT AND DUP2 PUSH28 0xFFFFFFFFFFFFFFFFFFFFFFFFFFFFFFFFFFFFFFFFFFFFFFFFFFFFFFFF NOT AND EQ SWAP2 POP POP PUSH2 0x24F1 JUMP JUMPDEST PUSH1 0x1 SWAP1 POP JUMPDEST SWAP5 SWAP4 POP POP POP POP JUMP JUMPDEST PUSH1 0x0 PUSH1 0x1 SWAP1 SLOAD SWAP1 PUSH2 0x100 EXP SWAP1 DIV PUSH1 0xFF AND PUSH2 0x2548 JUMPI PUSH1 0x40 MLOAD PUSH32 0x8C379A000000000000000000000000000000000000000000000000000000000 DUP2 MSTORE PUSH1 0x4 ADD PUSH2 0x253F SWAP1 PUSH2 0x318F JUMP JUMPDEST PUSH1 0x40 MLOAD DUP1 SWAP2 SUB SWAP1 REVERT JUMPDEST DUP2 PUSH1 0x97 SWAP1 DUP1 MLOAD SWAP1 PUSH1 0x20 ADD SWAP1 PUSH2 0x255E SWAP3 SWAP2 SWAP1 PUSH2 0x2604 JUMP JUMPDEST POP DUP1 PUSH1 0x98 SWAP1 DUP1 MLOAD SWAP1 PUSH1 0x20 ADD SWAP1 PUSH2 0x2575 SWAP3 SWAP2 SWAP1 PUSH2 0x2604 JUMP JUMPDEST POP POP POP JUMP JUMPDEST DUP3 DUP1 SLOAD DUP3 DUP3 SSTORE SWAP1 PUSH1 0x0 MSTORE PUSH1 0x20 PUSH1 0x0 KECCAK256 SWAP1 DUP2 ADD SWAP3 DUP3 ISZERO PUSH2 0x25F3 JUMPI SWAP2 PUSH1 0x20 MUL DUP3 ADD JUMPDEST DUP3 DUP2 GT ISZERO PUSH2 0x25F2 JUMPI DUP3 MLOAD DUP3 PUSH1 0x0 PUSH2 0x100 EXP DUP2 SLOAD DUP2 PUSH20 0xFFFFFFFFFFFFFFFFFFFFFFFFFFFFFFFFFFFFFFFF MUL NOT AND SWAP1 DUP4 PUSH20 0xFFFFFFFFFFFFFFFFFFFFFFFFFFFFFFFFFFFFFFFF AND MUL OR SWAP1 SSTORE POP SWAP2 PUSH1 0x20 ADD SWAP2 SWAP1 PUSH1 0x1 ADD SWAP1 PUSH2 0x259A JUMP JUMPDEST JUMPDEST POP SWAP1 POP PUSH2 0x2600 SWAP2 SWAP1 PUSH2 0x268A JUMP JUMPDEST POP SWAP1 JUMP JUMPDEST DUP3 DUP1 SLOAD PUSH2 0x2610 SWAP1 PUSH2 0x3483 JUMP JUMPDEST SWAP1 PUSH1 0x0 MSTORE PUSH1 0x20 PUSH1 0x0 KECCAK256 SWAP1 PUSH1 0x1F ADD PUSH1 0x20 SWAP1 DIV DUP2 ADD SWAP3 DUP3 PUSH2 0x2632 JUMPI PUSH1 0x0 DUP6 SSTORE PUSH2 0x2679 JUMP JUMPDEST DUP3 PUSH1 0x1F LT PUSH2 0x264B JUMPI DUP1 MLOAD PUSH1 0xFF NOT AND DUP4 DUP1 ADD OR DUP6 SSTORE PUSH2 0x2679 JUMP JUMPDEST DUP3 DUP1 ADD PUSH1 0x1 ADD DUP6 SSTORE DUP3 ISZERO PUSH2 0x2679 JUMPI SWAP2 DUP3 ADD JUMPDEST DUP3 DUP2 GT ISZERO PUSH2 0x2678 JUMPI DUP3 MLOAD DUP3 SSTORE SWAP2 PUSH1 0x20 ADD SWAP2 SWAP1 PUSH1 0x1 ADD SWAP1 PUSH2 0x265D JUMP JUMPDEST JUMPDEST POP SWAP1 POP PUSH2 0x2686 SWAP2 SWAP1 PUSH2 0x268A JUMP JUMPDEST POP SWAP1 JUMP JUMPDEST JUMPDEST DUP1 DUP3 GT ISZERO PUSH2 0x26A3 JUMPI PUSH1 0x0 DUP2 PUSH1 0x0 SWAP1 SSTORE POP PUSH1 0x1 ADD PUSH2 0x268B JUMP JUMPDEST POP SWAP1 JUMP JUMPDEST PUSH1 0x0 PUSH2 0x26BA PUSH2 0x26B5 DUP5 PUSH2 0x31EF JUMP JUMPDEST PUSH2 0x31CA JUMP JUMPDEST SWAP1 POP DUP3 DUP2 MSTORE PUSH1 0x20 DUP2 ADD DUP5 DUP5 DUP5 ADD GT ISZERO PUSH2 0x26D6 JUMPI PUSH2 0x26D5 PUSH2 0x367E JUMP JUMPDEST JUMPDEST PUSH2 0x26E1 DUP5 DUP3 DUP6 PUSH2 0x3441 JUMP JUMPDEST POP SWAP4 SWAP3 POP POP POP JUMP JUMPDEST PUSH1 0x0 DUP2 CALLDATALOAD SWAP1 POP PUSH2 0x26F8 DUP2 PUSH2 0x3BC7 JUMP JUMPDEST SWAP3 SWAP2 POP POP JUMP JUMPDEST PUSH1 0x0 DUP2 CALLDATALOAD SWAP1 POP PUSH2 0x270D DUP2 PUSH2 0x3BDE JUMP JUMPDEST SWAP3 SWAP2 POP POP JUMP JUMPDEST PUSH1 0x0 DUP2 MLOAD SWAP1 POP PUSH2 0x2722 DUP2 PUSH2 0x3BF5 JUMP JUMPDEST SWAP3 SWAP2 POP POP JUMP JUMPDEST PUSH1 0x0 DUP2 CALLDATALOAD SWAP1 POP PUSH2 0x2737 DUP2 PUSH2 0x3C0C JUMP JUMPDEST SWAP3 SWAP2 POP POP JUMP JUMPDEST PUSH1 0x0 DUP2 MLOAD SWAP1 POP PUSH2 0x274C DUP2 PUSH2 0x3C0C JUMP JUMPDEST SWAP3 SWAP2 POP POP JUMP JUMPDEST PUSH1 0x0 DUP3 PUSH1 0x1F DUP4 ADD SLT PUSH2 0x2767 JUMPI PUSH2 0x2766 PUSH2 0x3679 JUMP JUMPDEST JUMPDEST DUP2 CALLDATALOAD PUSH2 0x2777 DUP5 DUP3 PUSH1 0x20 DUP7 ADD PUSH2 0x26A7 JUMP JUMPDEST SWAP2 POP POP SWAP3 SWAP2 POP POP JUMP JUMPDEST PUSH1 0x0 DUP2 CALLDATALOAD SWAP1 POP PUSH2 0x278F DUP2 PUSH2 0x3C23 JUMP JUMPDEST SWAP3 SWAP2 POP POP JUMP JUMPDEST PUSH1 0x0 PUSH1 0x20 DUP3 DUP5 SUB SLT ISZERO PUSH2 0x27AB JUMPI PUSH2 0x27AA PUSH2 0x3688 JUMP JUMPDEST JUMPDEST PUSH1 0x0 PUSH2 0x27B9 DUP5 DUP3 DUP6 ADD PUSH2 0x26E9 JUMP JUMPDEST SWAP2 POP POP SWAP3 SWAP2 POP POP JUMP JUMPDEST PUSH1 0x0 DUP1 PUSH1 0x40 DUP4 DUP6 SUB SLT ISZERO PUSH2 0x27D9 JUMPI PUSH2 0x27D8 PUSH2 0x3688 JUMP JUMPDEST JUMPDEST PUSH1 0x0 PUSH2 0x27E7 DUP6 DUP3 DUP7 ADD PUSH2 0x26E9 JUMP JUMPDEST SWAP3 POP POP PUSH1 0x20 PUSH2 0x27F8 DUP6 DUP3 DUP7 ADD PUSH2 0x26E9 JUMP JUMPDEST SWAP2 POP POP SWAP3 POP SWAP3 SWAP1 POP JUMP JUMPDEST PUSH1 0x0 DUP1 PUSH1 0x0 PUSH1 0x60 DUP5 DUP7 SUB SLT ISZERO PUSH2 0x281B JUMPI PUSH2 0x281A PUSH2 0x3688 JUMP JUMPDEST JUMPDEST PUSH1 0x0 PUSH2 0x2829 DUP7 DUP3 DUP8 ADD PUSH2 0x26E9 JUMP JUMPDEST SWAP4 POP POP PUSH1 0x20 PUSH2 0x283A DUP7 DUP3 DUP8 ADD PUSH2 0x26E9 JUMP JUMPDEST SWAP3 POP POP PUSH1 0x40 PUSH2 0x284B DUP7 DUP3 DUP8 ADD PUSH2 0x2780 JUMP JUMPDEST SWAP2 POP POP SWAP3 POP SWAP3 POP SWAP3 JUMP JUMPDEST PUSH1 0x0 DUP1 PUSH1 0x0 DUP1 PUSH1 0x80 DUP6 DUP8 SUB SLT ISZERO PUSH2 0x286F JUMPI PUSH2 0x286E PUSH2 0x3688 JUMP JUMPDEST JUMPDEST PUSH1 0x0 PUSH2 0x287D DUP8 DUP3 DUP9 ADD PUSH2 0x26E9 JUMP JUMPDEST SWAP5 POP POP PUSH1 0x20 PUSH2 0x288E DUP8 DUP3 DUP9 ADD PUSH2 0x26E9 JUMP JUMPDEST SWAP4 POP POP PUSH1 0x40 PUSH2 0x289F DUP8 DUP3 DUP9 ADD PUSH2 0x2780 JUMP JUMPDEST SWAP3 POP POP PUSH1 0x60 DUP6 ADD CALLDATALOAD PUSH8 0xFFFFFFFFFFFFFFFF DUP2 GT ISZERO PUSH2 0x28C0 JUMPI PUSH2 0x28BF PUSH2 0x3683 JUMP JUMPDEST JUMPDEST PUSH2 0x28CC DUP8 DUP3 DUP9 ADD PUSH2 0x2752 JUMP JUMPDEST SWAP2 POP POP SWAP3 SWAP6 SWAP2 SWAP5 POP SWAP3 POP JUMP JUMPDEST PUSH1 0x0 DUP1 PUSH1 0x40 DUP4 DUP6 SUB SLT ISZERO PUSH2 0x28EF JUMPI PUSH2 0x28EE PUSH2 0x3688 JUMP JUMPDEST JUMPDEST PUSH1 0x0 PUSH2 0x28FD DUP6 DUP3 DUP7 ADD PUSH2 0x26E9 JUMP JUMPDEST SWAP3 POP POP PUSH1 0x20 PUSH2 0x290E DUP6 DUP3 DUP7 ADD PUSH2 0x26FE JUMP JUMPDEST SWAP2 POP POP SWAP3 POP SWAP3 SWAP1 POP JUMP JUMPDEST PUSH1 0x0 DUP1 PUSH1 0x40 DUP4 DUP6 SUB SLT ISZERO PUSH2 0x292F JUMPI PUSH2 0x292E PUSH2 0x3688 JUMP JUMPDEST JUMPDEST PUSH1 0x0 PUSH2 0x293D DUP6 DUP3 DUP7 ADD PUSH2 0x26E9 JUMP JUMPDEST SWAP3 POP POP PUSH1 0x20 PUSH2 0x294E DUP6 DUP3 DUP7 ADD PUSH2 0x2780 JUMP JUMPDEST SWAP2 POP POP SWAP3 POP SWAP3 SWAP1 POP JUMP JUMPDEST PUSH1 0x0 PUSH1 0x20 DUP3 DUP5 SUB SLT ISZERO PUSH2 0x296E JUMPI PUSH2 0x296D PUSH2 0x3688 JUMP JUMPDEST JUMPDEST PUSH1 0x0 PUSH2 0x297C DUP5 DUP3 DUP6 ADD PUSH2 0x2713 JUMP JUMPDEST SWAP2 POP POP SWAP3 SWAP2 POP POP JUMP JUMPDEST PUSH1 0x0 PUSH1 0x20 DUP3 DUP5 SUB SLT ISZERO PUSH2 0x299B JUMPI PUSH2 0x299A PUSH2 0x3688 JUMP JUMPDEST JUMPDEST PUSH1 0x0 PUSH2 0x29A9 DUP5 DUP3 DUP6 ADD PUSH2 0x2728 JUMP JUMPDEST SWAP2 POP POP SWAP3 SWAP2 POP POP JUMP JUMPDEST PUSH1 0x0 PUSH1 0x20 DUP3 DUP5 SUB SLT ISZERO PUSH2 0x29C8 JUMPI PUSH2 0x29C7 PUSH2 0x3688 JUMP JUMPDEST JUMPDEST PUSH1 0x0 PUSH2 0x29D6 DUP5 DUP3 DUP6 ADD PUSH2 0x273D JUMP JUMPDEST SWAP2 POP POP SWAP3 SWAP2 POP POP JUMP JUMPDEST PUSH1 0x0 PUSH1 0x20 DUP3 DUP5 SUB SLT ISZERO PUSH2 0x29F5 JUMPI PUSH2 0x29F4 PUSH2 0x3688 JUMP JUMPDEST JUMPDEST PUSH1 0x0 PUSH2 0x2A03 DUP5 DUP3 DUP6 ADD PUSH2 0x2780 JUMP JUMPDEST SWAP2 POP POP SWAP3 SWAP2 POP POP JUMP JUMPDEST PUSH1 0x0 PUSH2 0x2A18 DUP4 DUP4 PUSH2 0x2A24 JUMP JUMPDEST PUSH1 0x20 DUP4 ADD SWAP1 POP SWAP3 SWAP2 POP POP JUMP JUMPDEST PUSH2 0x2A2D DUP2 PUSH2 0x33C3 JUMP JUMPDEST DUP3 MSTORE POP POP JUMP JUMPDEST PUSH2 0x2A3C DUP2 PUSH2 0x33C3 JUMP JUMPDEST DUP3 MSTORE POP POP JUMP JUMPDEST PUSH2 0x2A4B DUP2 PUSH2 0x33B1 JUMP JUMPDEST DUP3 MSTORE POP POP JUMP JUMPDEST PUSH2 0x2A62 PUSH2 0x2A5D DUP3 PUSH2 0x33B1 JUMP JUMPDEST PUSH2 0x352F JUMP JUMPDEST DUP3 MSTORE POP POP JUMP JUMPDEST PUSH1 0x0 PUSH2 0x2A73 DUP3 PUSH2 0x3230 JUMP JUMPDEST PUSH2 0x2A7D DUP2 DUP6 PUSH2 0x325E JUMP JUMPDEST SWAP4 POP PUSH2 0x2A88 DUP4 PUSH2 0x3220 JUMP JUMPDEST DUP1 PUSH1 0x0 JUMPDEST DUP4 DUP2 LT ISZERO PUSH2 0x2AB9 JUMPI DUP2 MLOAD PUSH2 0x2AA0 DUP9 DUP3 PUSH2 0x2A0C JUMP JUMPDEST SWAP8 POP PUSH2 0x2AAB DUP4 PUSH2 0x3251 JUMP JUMPDEST SWAP3 POP POP PUSH1 0x1 DUP2 ADD SWAP1 POP PUSH2 0x2A8C JUMP JUMPDEST POP DUP6 SWAP4 POP POP POP POP SWAP3 SWAP2 POP POP JUMP JUMPDEST PUSH2 0x2ACF DUP2 PUSH2 0x33D5 JUMP JUMPDEST DUP3 MSTORE POP POP JUMP JUMPDEST PUSH2 0x2ADE DUP2 PUSH2 0x33E1 JUMP JUMPDEST DUP3 MSTORE POP POP JUMP JUMPDEST PUSH1 0x0 PUSH2 0x2AEF DUP3 PUSH2 0x323B JUMP JUMPDEST PUSH2 0x2AF9 DUP2 DUP6 PUSH2 0x326F JUMP JUMPDEST SWAP4 POP PUSH2 0x2B09 DUP2 DUP6 PUSH1 0x20 DUP7 ADD PUSH2 0x3450 JUMP JUMPDEST PUSH2 0x2B12 DUP2 PUSH2 0x368D JUMP JUMPDEST DUP5 ADD SWAP2 POP POP SWAP3 SWAP2 POP POP JUMP JUMPDEST PUSH1 0x0 PUSH2 0x2B28 DUP3 PUSH2 0x3246 JUMP JUMPDEST PUSH2 0x2B32 DUP2 DUP6 PUSH2 0x3280 JUMP JUMPDEST SWAP4 POP PUSH2 0x2B42 DUP2 DUP6 PUSH1 0x20 DUP7 ADD PUSH2 0x3450 JUMP JUMPDEST PUSH2 0x2B4B DUP2 PUSH2 0x368D JUMP JUMPDEST DUP5 ADD SWAP2 POP POP SWAP3 SWAP2 POP POP JUMP JUMPDEST PUSH1 0x0 PUSH2 0x2B61 DUP3 PUSH2 0x3246 JUMP JUMPDEST PUSH2 0x2B6B DUP2 DUP6 PUSH2 0x3291 JUMP JUMPDEST SWAP4 POP PUSH2 0x2B7B DUP2 DUP6 PUSH1 0x20 DUP7 ADD PUSH2 0x3450 JUMP JUMPDEST DUP1 DUP5 ADD SWAP2 POP POP SWAP3 SWAP2 POP POP JUMP JUMPDEST PUSH1 0x0 PUSH2 0x2B94 PUSH1 0xE DUP4 PUSH2 0x3280 JUMP JUMPDEST SWAP2 POP PUSH2 0x2B9F DUP3 PUSH2 0x36AB JUMP JUMPDEST PUSH1 0x20 DUP3 ADD SWAP1 POP SWAP2 SWAP1 POP JUMP JUMPDEST PUSH1 0x0 PUSH2 0x2BB7 PUSH1 0x32 DUP4 PUSH2 0x3280 JUMP JUMPDEST SWAP2 POP PUSH2 0x2BC2 DUP3 PUSH2 0x36D4 JUMP JUMPDEST PUSH1 0x40 DUP3 ADD SWAP1 POP SWAP2 SWAP1 POP JUMP JUMPDEST PUSH1 0x0 PUSH2 0x2BDA PUSH1 0x26 DUP4 PUSH2 0x3280 JUMP JUMPDEST SWAP2 POP PUSH2 0x2BE5 DUP3 PUSH2 0x3723 JUMP JUMPDEST PUSH1 0x40 DUP3 ADD SWAP1 POP SWAP2 SWAP1 POP JUMP JUMPDEST PUSH1 0x0 PUSH2 0x2BFD PUSH1 0x25 DUP4 PUSH2 0x3280 JUMP JUMPDEST SWAP2 POP PUSH2 0x2C08 DUP3 PUSH2 0x3772 JUMP JUMPDEST PUSH1 0x40 DUP3 ADD SWAP1 POP SWAP2 SWAP1 POP JUMP JUMPDEST PUSH1 0x0 PUSH2 0x2C20 PUSH1 0x24 DUP4 PUSH2 0x3280 JUMP JUMPDEST SWAP2 POP PUSH2 0x2C2B DUP3 PUSH2 0x37C1 JUMP JUMPDEST PUSH1 0x40 DUP3 ADD SWAP1 POP SWAP2 SWAP1 POP JUMP JUMPDEST PUSH1 0x0 PUSH2 0x2C43 PUSH1 0x19 DUP4 PUSH2 0x3280 JUMP JUMPDEST SWAP2 POP PUSH2 0x2C4E DUP3 PUSH2 0x3810 JUMP JUMPDEST PUSH1 0x20 DUP3 ADD SWAP1 POP SWAP2 SWAP1 POP JUMP JUMPDEST PUSH1 0x0 PUSH2 0x2C66 PUSH1 0x2C DUP4 PUSH2 0x3280 JUMP JUMPDEST SWAP2 POP PUSH2 0x2C71 DUP3 PUSH2 0x3839 JUMP JUMPDEST PUSH1 0x40 DUP3 ADD SWAP1 POP SWAP2 SWAP1 POP JUMP JUMPDEST PUSH1 0x0 PUSH2 0x2C89 PUSH1 0x30 DUP4 PUSH2 0x3280 JUMP JUMPDEST SWAP2 POP PUSH2 0x2C94 DUP3 PUSH2 0x3888 JUMP JUMPDEST PUSH1 0x40 DUP3 ADD SWAP1 POP SWAP2 SWAP1 POP JUMP JUMPDEST PUSH1 0x0 PUSH2 0x2CAC PUSH1 0x38 DUP4 PUSH2 0x3280 JUMP JUMPDEST SWAP2 POP PUSH2 0x2CB7 DUP3 PUSH2 0x38D7 JUMP JUMPDEST PUSH1 0x40 DUP3 ADD SWAP1 POP SWAP2 SWAP1 POP JUMP JUMPDEST PUSH1 0x0 PUSH2 0x2CCF PUSH1 0x2A DUP4 PUSH2 0x3280 JUMP JUMPDEST SWAP2 POP PUSH2 0x2CDA DUP3 PUSH2 0x3926 JUMP JUMPDEST PUSH1 0x40 DUP3 ADD SWAP1 POP SWAP2 SWAP1 POP JUMP JUMPDEST PUSH1 0x0 PUSH2 0x2CF2 PUSH1 0x29 DUP4 PUSH2 0x3280 JUMP JUMPDEST SWAP2 POP PUSH2 0x2CFD DUP3 PUSH2 0x3975 JUMP JUMPDEST PUSH1 0x40 DUP3 ADD SWAP1 POP SWAP2 SWAP1 POP JUMP JUMPDEST PUSH1 0x0 PUSH2 0x2D15 PUSH1 0x2E DUP4 PUSH2 0x3280 JUMP JUMPDEST SWAP2 POP PUSH2 0x2D20 DUP3 PUSH2 0x39C4 JUMP JUMPDEST PUSH1 0x40 DUP3 ADD SWAP1 POP SWAP2 SWAP1 POP JUMP JUMPDEST PUSH1 0x0 PUSH2 0x2D38 PUSH1 0x2C DUP4 PUSH2 0x3280 JUMP JUMPDEST SWAP2 POP PUSH2 0x2D43 DUP3 PUSH2 0x3A13 JUMP JUMPDEST PUSH1 0x40 DUP3 ADD SWAP1 POP SWAP2 SWAP1 POP JUMP JUMPDEST PUSH1 0x0 PUSH2 0x2D5B PUSH1 0x20 DUP4 PUSH2 0x3280 JUMP JUMPDEST SWAP2 POP PUSH2 0x2D66 DUP3 PUSH2 0x3A62 JUMP JUMPDEST PUSH1 0x20 DUP3 ADD SWAP1 POP SWAP2 SWAP1 POP JUMP JUMPDEST PUSH1 0x0 PUSH2 0x2D7E PUSH1 0x2F DUP4 PUSH2 0x3280 JUMP JUMPDEST SWAP2 POP PUSH2 0x2D89 DUP3 PUSH2 0x3A8B JUMP JUMPDEST PUSH1 0x40 DUP3 ADD SWAP1 POP SWAP2 SWAP1 POP JUMP JUMPDEST PUSH1 0x0 PUSH2 0x2DA1 PUSH1 0x21 DUP4 PUSH2 0x3280 JUMP JUMPDEST SWAP2 POP PUSH2 0x2DAC DUP3 PUSH2 0x3ADA JUMP JUMPDEST PUSH1 0x40 DUP3 ADD SWAP1 POP SWAP2 SWAP1 POP JUMP JUMPDEST PUSH1 0x0 PUSH2 0x2DC4 PUSH1 0x31 DUP4 PUSH2 0x3280 JUMP JUMPDEST SWAP2 POP PUSH2 0x2DCF DUP3 PUSH2 0x3B29 JUMP JUMPDEST PUSH1 0x40 DUP3 ADD SWAP1 POP SWAP2 SWAP1 POP JUMP JUMPDEST PUSH1 0x0 PUSH2 0x2DE7 PUSH1 0x2B DUP4 PUSH2 0x3280 JUMP JUMPDEST SWAP2 POP PUSH2 0x2DF2 DUP3 PUSH2 0x3B78 JUMP JUMPDEST PUSH1 0x40 DUP3 ADD SWAP1 POP SWAP2 SWAP1 POP JUMP JUMPDEST PUSH2 0x2E06 DUP2 PUSH2 0x3437 JUMP JUMPDEST DUP3 MSTORE POP POP JUMP JUMPDEST PUSH2 0x2E1D PUSH2 0x2E18 DUP3 PUSH2 0x3437 JUMP JUMPDEST PUSH2 0x3553 JUMP JUMPDEST DUP3 MSTORE POP POP JUMP JUMPDEST PUSH1 0x0 PUSH2 0x2E2F DUP3 DUP6 PUSH2 0x2A51 JUMP JUMPDEST PUSH1 0x14 DUP3 ADD SWAP2 POP PUSH2 0x2E3F DUP3 DUP5 PUSH2 0x2E0C JUMP JUMPDEST PUSH1 0x20 DUP3 ADD SWAP2 POP DUP2 SWAP1 POP SWAP4 SWAP3 POP POP POP JUMP JUMPDEST PUSH1 0x0 PUSH2 0x2E5B DUP3 DUP6 PUSH2 0x2B56 JUMP JUMPDEST SWAP2 POP PUSH2 0x2E67 DUP3 DUP5 PUSH2 0x2B56 JUMP JUMPDEST SWAP2 POP DUP2 SWAP1 POP SWAP4 SWAP3 POP POP POP JUMP JUMPDEST PUSH1 0x0 PUSH1 0x20 DUP3 ADD SWAP1 POP PUSH2 0x2E88 PUSH1 0x0 DUP4 ADD DUP5 PUSH2 0x2A42 JUMP JUMPDEST SWAP3 SWAP2 POP POP JUMP JUMPDEST PUSH1 0x0 PUSH1 0x20 DUP3 ADD SWAP1 POP PUSH2 0x2EA3 PUSH1 0x0 DUP4 ADD DUP5 PUSH2 0x2A33 JUMP JUMPDEST SWAP3 SWAP2 POP POP JUMP JUMPDEST PUSH1 0x0 PUSH1 0x80 DUP3 ADD SWAP1 POP PUSH2 0x2EBE PUSH1 0x0 DUP4 ADD DUP8 PUSH2 0x2A42 JUMP JUMPDEST PUSH2 0x2ECB PUSH1 0x20 DUP4 ADD DUP7 PUSH2 0x2A42 JUMP JUMPDEST PUSH2 0x2ED8 PUSH1 0x40 DUP4 ADD DUP6 PUSH2 0x2DFD JUMP JUMPDEST DUP2 DUP2 SUB PUSH1 0x60 DUP4 ADD MSTORE PUSH2 0x2EEA DUP2 DUP5 PUSH2 0x2AE4 JUMP JUMPDEST SWAP1 POP SWAP6 SWAP5 POP POP POP POP POP JUMP JUMPDEST PUSH1 0x0 PUSH1 0x20 DUP3 ADD SWAP1 POP DUP2 DUP2 SUB PUSH1 0x0 DUP4 ADD MSTORE PUSH2 0x2F0F DUP2 DUP5 PUSH2 0x2A68 JUMP JUMPDEST SWAP1 POP SWAP3 SWAP2 POP POP JUMP JUMPDEST PUSH1 0x0 PUSH1 0x20 DUP3 ADD SWAP1 POP PUSH2 0x2F2C PUSH1 0x0 DUP4 ADD DUP5 PUSH2 0x2AC6 JUMP JUMPDEST SWAP3 SWAP2 POP POP JUMP JUMPDEST PUSH1 0x0 PUSH1 0x20 DUP3 ADD SWAP1 POP PUSH2 0x2F47 PUSH1 0x0 DUP4 ADD DUP5 PUSH2 0x2AD5 JUMP JUMPDEST SWAP3 SWAP2 POP POP JUMP JUMPDEST PUSH1 0x0 PUSH1 0x20 DUP3 ADD SWAP1 POP DUP2 DUP2 SUB PUSH1 0x0 DUP4 ADD MSTORE PUSH2 0x2F67 DUP2 DUP5 PUSH2 0x2B1D JUMP JUMPDEST SWAP1 POP SWAP3 SWAP2 POP POP JUMP JUMPDEST PUSH1 0x0 PUSH1 0x20 DUP3 ADD SWAP1 POP DUP2 DUP2 SUB PUSH1 0x0 DUP4 ADD MSTORE PUSH2 0x2F88 DUP2 PUSH2 0x2B87 JUMP JUMPDEST SWAP1 POP SWAP2 SWAP1 POP JUMP JUMPDEST PUSH1 0x0 PUSH1 0x20 DUP3 ADD SWAP1 POP DUP2 DUP2 SUB PUSH1 0x0 DUP4 ADD MSTORE PUSH2 0x2FA8 DUP2 PUSH2 0x2BAA JUMP JUMPDEST SWAP1 POP SWAP2 SWAP1 POP JUMP JUMPDEST PUSH1 0x0 PUSH1 0x20 DUP3 ADD SWAP1 POP DUP2 DUP2 SUB PUSH1 0x0 DUP4 ADD MSTORE PUSH2 0x2FC8 DUP2 PUSH2 0x2BCD JUMP JUMPDEST SWAP1 POP SWAP2 SWAP1 POP JUMP JUMPDEST PUSH1 0x0 PUSH1 0x20 DUP3 ADD SWAP1 POP DUP2 DUP2 SUB PUSH1 0x0 DUP4 ADD MSTORE PUSH2 0x2FE8 DUP2 PUSH2 0x2BF0 JUMP JUMPDEST SWAP1 POP SWAP2 SWAP1 POP JUMP JUMPDEST PUSH1 0x0 PUSH1 0x20 DUP3 ADD SWAP1 POP DUP2 DUP2 SUB PUSH1 0x0 DUP4 ADD MSTORE PUSH2 0x3008 DUP2 PUSH2 0x2C13 JUMP JUMPDEST SWAP1 POP SWAP2 SWAP1 POP JUMP JUMPDEST PUSH1 0x0 PUSH1 0x20 DUP3 ADD SWAP1 POP DUP2 DUP2 SUB PUSH1 0x0 DUP4 ADD MSTORE PUSH2 0x3028 DUP2 PUSH2 0x2C36 JUMP JUMPDEST SWAP1 POP SWAP2 SWAP1 POP JUMP JUMPDEST PUSH1 0x0 PUSH1 0x20 DUP3 ADD SWAP1 POP DUP2 DUP2 SUB PUSH1 0x0 DUP4 ADD MSTORE PUSH2 0x3048 DUP2 PUSH2 0x2C59 JUMP JUMPDEST SWAP1 POP SWAP2 SWAP1 POP JUMP JUMPDEST PUSH1 0x0 PUSH1 0x20 DUP3 ADD SWAP1 POP DUP2 DUP2 SUB PUSH1 0x0 DUP4 ADD MSTORE PUSH2 0x3068 DUP2 PUSH2 0x2C7C JUMP JUMPDEST SWAP1 POP SWAP2 SWAP1 POP JUMP JUMPDEST PUSH1 0x0 PUSH1 0x20 DUP3 ADD SWAP1 POP DUP2 DUP2 SUB PUSH1 0x0 DUP4 ADD MSTORE PUSH2 0x3088 DUP2 PUSH2 0x2C9F JUMP JUMPDEST SWAP1 POP SWAP2 SWAP1 POP JUMP JUMPDEST PUSH1 0x0 PUSH1 0x20 DUP3 ADD SWAP1 POP DUP2 DUP2 SUB PUSH1 0x0 DUP4 ADD MSTORE PUSH2 0x30A8 DUP2 PUSH2 0x2CC2 JUMP JUMPDEST SWAP1 POP SWAP2 SWAP1 POP JUMP JUMPDEST PUSH1 0x0 PUSH1 0x20 DUP3 ADD SWAP1 POP DUP2 DUP2 SUB PUSH1 0x0 DUP4 ADD MSTORE PUSH2 0x30C8 DUP2 PUSH2 0x2CE5 JUMP JUMPDEST SWAP1 POP SWAP2 SWAP1 POP JUMP JUMPDEST PUSH1 0x0 PUSH1 0x20 DUP3 ADD SWAP1 POP DUP2 DUP2 SUB PUSH1 0x0 DUP4 ADD MSTORE PUSH2 0x30E8 DUP2 PUSH2 0x2D08 JUMP JUMPDEST SWAP1 POP SWAP2 SWAP1 POP JUMP JUMPDEST PUSH1 0x0 PUSH1 0x20 DUP3 ADD SWAP1 POP DUP2 DUP2 SUB PUSH1 0x0 DUP4 ADD MSTORE PUSH2 0x3108 DUP2 PUSH2 0x2D2B JUMP JUMPDEST SWAP1 POP SWAP2 SWAP1 POP JUMP JUMPDEST PUSH1 0x0 PUSH1 0x20 DUP3 ADD SWAP1 POP DUP2 DUP2 SUB PUSH1 0x0 DUP4 ADD MSTORE PUSH2 0x3128 DUP2 PUSH2 0x2D4E JUMP JUMPDEST SWAP1 POP SWAP2 SWAP1 POP JUMP JUMPDEST PUSH1 0x0 PUSH1 0x20 DUP3 ADD SWAP1 POP DUP2 DUP2 SUB PUSH1 0x0 DUP4 ADD MSTORE PUSH2 0x3148 DUP2 PUSH2 0x2D71 JUMP JUMPDEST SWAP1 POP SWAP2 SWAP1 POP JUMP JUMPDEST PUSH1 0x0 PUSH1 0x20 DUP3 ADD SWAP1 POP DUP2 DUP2 SUB PUSH1 0x0 DUP4 ADD MSTORE PUSH2 0x3168 DUP2 PUSH2 0x2D94 JUMP JUMPDEST SWAP1 POP SWAP2 SWAP1 POP JUMP JUMPDEST PUSH1 0x0 PUSH1 0x20 DUP3 ADD SWAP1 POP DUP2 DUP2 SUB PUSH1 0x0 DUP4 ADD MSTORE PUSH2 0x3188 DUP2 PUSH2 0x2DB7 JUMP JUMPDEST SWAP1 POP SWAP2 SWAP1 POP JUMP JUMPDEST PUSH1 0x0 PUSH1 0x20 DUP3 ADD SWAP1 POP DUP2 DUP2 SUB PUSH1 0x0 DUP4 ADD MSTORE PUSH2 0x31A8 DUP2 PUSH2 0x2DDA JUMP JUMPDEST SWAP1 POP SWAP2 SWAP1 POP JUMP JUMPDEST PUSH1 0x0 PUSH1 0x20 DUP3 ADD SWAP1 POP PUSH2 0x31C4 PUSH1 0x0 DUP4 ADD DUP5 PUSH2 0x2DFD JUMP JUMPDEST SWAP3 SWAP2 POP POP JUMP JUMPDEST PUSH1 0x0 PUSH2 0x31D4 PUSH2 0x31E5 JUMP JUMPDEST SWAP1 POP PUSH2 0x31E0 DUP3 DUP3 PUSH2 0x34B5 JUMP JUMPDEST SWAP2 SWAP1 POP JUMP JUMPDEST PUSH1 0x0 PUSH1 0x40 MLOAD SWAP1 POP SWAP1 JUMP JUMPDEST PUSH1 0x0 PUSH8 0xFFFFFFFFFFFFFFFF DUP3 GT ISZERO PUSH2 0x320A JUMPI PUSH2 0x3209 PUSH2 0x364A JUMP JUMPDEST JUMPDEST PUSH2 0x3213 DUP3 PUSH2 0x368D JUMP JUMPDEST SWAP1 POP PUSH1 0x20 DUP2 ADD SWAP1 POP SWAP2 SWAP1 POP JUMP JUMPDEST PUSH1 0x0 DUP2 SWAP1 POP PUSH1 0x20 DUP3 ADD SWAP1 POP SWAP2 SWAP1 POP JUMP JUMPDEST PUSH1 0x0 DUP2 MLOAD SWAP1 POP SWAP2 SWAP1 POP JUMP JUMPDEST PUSH1 0x0 DUP2 MLOAD SWAP1 POP SWAP2 SWAP1 POP JUMP JUMPDEST PUSH1 0x0 DUP2 MLOAD SWAP1 POP SWAP2 SWAP1 POP JUMP JUMPDEST PUSH1 0x0 PUSH1 0x20 DUP3 ADD SWAP1 POP SWAP2 SWAP1 POP JUMP JUMPDEST PUSH1 0x0 DUP3 DUP3 MSTORE PUSH1 0x20 DUP3 ADD SWAP1 POP SWAP3 SWAP2 POP POP JUMP JUMPDEST PUSH1 0x0 DUP3 DUP3 MSTORE PUSH1 0x20 DUP3 ADD SWAP1 POP SWAP3 SWAP2 POP POP JUMP JUMPDEST PUSH1 0x0 DUP3 DUP3 MSTORE PUSH1 0x20 DUP3 ADD SWAP1 POP SWAP3 SWAP2 POP POP JUMP JUMPDEST PUSH1 0x0 DUP2 SWAP1 POP SWAP3 SWAP2 POP POP JUMP JUMPDEST PUSH1 0x0 PUSH2 0x32A7 DUP3 PUSH2 0x3437 JUMP JUMPDEST SWAP2 POP PUSH2 0x32B2 DUP4 PUSH2 0x3437 JUMP JUMPDEST SWAP3 POP DUP3 PUSH32 0xFFFFFFFFFFFFFFFFFFFFFFFFFFFFFFFFFFFFFFFFFFFFFFFFFFFFFFFFFFFFFFFF SUB DUP3 GT ISZERO PUSH2 0x32E7 JUMPI PUSH2 0x32E6 PUSH2 0x358E JUMP JUMPDEST JUMPDEST DUP3 DUP3 ADD SWAP1 POP SWAP3 SWAP2 POP POP JUMP JUMPDEST PUSH1 0x0 PUSH2 0x32FD DUP3 PUSH2 0x3437 JUMP JUMPDEST SWAP2 POP PUSH2 0x3308 DUP4 PUSH2 0x3437 JUMP JUMPDEST SWAP3 POP DUP3 PUSH2 0x3318 JUMPI PUSH2 0x3317 PUSH2 0x35BD JUMP JUMPDEST JUMPDEST DUP3 DUP3 DIV SWAP1 POP SWAP3 SWAP2 POP POP JUMP JUMPDEST PUSH1 0x0 PUSH2 0x332E DUP3 PUSH2 0x3437 JUMP JUMPDEST SWAP2 POP PUSH2 0x3339 DUP4 PUSH2 0x3437 JUMP JUMPDEST SWAP3 POP DUP2 PUSH32 0xFFFFFFFFFFFFFFFFFFFFFFFFFFFFFFFFFFFFFFFFFFFFFFFFFFFFFFFFFFFFFFFF DIV DUP4 GT DUP3 ISZERO ISZERO AND ISZERO PUSH2 0x3372 JUMPI PUSH2 0x3371 PUSH2 0x358E JUMP JUMPDEST JUMPDEST DUP3 DUP3 MUL SWAP1 POP SWAP3 SWAP2 POP POP JUMP JUMPDEST PUSH1 0x0 PUSH2 0x3388 DUP3 PUSH2 0x3437 JUMP JUMPDEST SWAP2 POP PUSH2 0x3393 DUP4 PUSH2 0x3437 JUMP JUMPDEST SWAP3 POP DUP3 DUP3 LT ISZERO PUSH2 0x33A6 JUMPI PUSH2 0x33A5 PUSH2 0x358E JUMP JUMPDEST JUMPDEST DUP3 DUP3 SUB SWAP1 POP SWAP3 SWAP2 POP POP JUMP JUMPDEST PUSH1 0x0 PUSH2 0x33BC DUP3 PUSH2 0x3417 JUMP JUMPDEST SWAP1 POP SWAP2 SWAP1 POP JUMP JUMPDEST PUSH1 0x0 PUSH2 0x33CE DUP3 PUSH2 0x3417 JUMP JUMPDEST SWAP1 POP SWAP2 SWAP1 POP JUMP JUMPDEST PUSH1 0x0 DUP2 ISZERO ISZERO SWAP1 POP SWAP2 SWAP1 POP JUMP JUMPDEST PUSH1 0x0 DUP2 SWAP1 POP SWAP2 SWAP1 POP JUMP JUMPDEST PUSH1 0x0 PUSH32 0xFFFFFFFF00000000000000000000000000000000000000000000000000000000 DUP3 AND SWAP1 POP SWAP2 SWAP1 POP JUMP JUMPDEST PUSH1 0x0 PUSH20 0xFFFFFFFFFFFFFFFFFFFFFFFFFFFFFFFFFFFFFFFF DUP3 AND SWAP1 POP SWAP2 SWAP1 POP JUMP JUMPDEST PUSH1 0x0 DUP2 SWAP1 POP SWAP2 SWAP1 POP JUMP JUMPDEST DUP3 DUP2 DUP4 CALLDATACOPY PUSH1 0x0 DUP4 DUP4 ADD MSTORE POP POP POP JUMP JUMPDEST PUSH1 0x0 JUMPDEST DUP4 DUP2 LT ISZERO PUSH2 0x346E JUMPI DUP1 DUP3 ADD MLOAD DUP2 DUP5 ADD MSTORE PUSH1 0x20 DUP2 ADD SWAP1 POP PUSH2 0x3453 JUMP JUMPDEST DUP4 DUP2 GT ISZERO PUSH2 0x347D JUMPI PUSH1 0x0 DUP5 DUP5 ADD MSTORE JUMPDEST POP POP POP POP JUMP JUMPDEST PUSH1 0x0 PUSH1 0x2 DUP3 DIV SWAP1 POP PUSH1 0x1 DUP3 AND DUP1 PUSH2 0x349B JUMPI PUSH1 0x7F DUP3 AND SWAP2 POP JUMPDEST PUSH1 0x20 DUP3 LT DUP2 EQ ISZERO PUSH2 0x34AF JUMPI PUSH2 0x34AE PUSH2 0x35EC JUMP JUMPDEST JUMPDEST POP SWAP2 SWAP1 POP JUMP JUMPDEST PUSH2 0x34BE DUP3 PUSH2 0x368D JUMP JUMPDEST DUP2 ADD DUP2 DUP2 LT PUSH8 0xFFFFFFFFFFFFFFFF DUP3 GT OR ISZERO PUSH2 0x34DD JUMPI PUSH2 0x34DC PUSH2 0x364A JUMP JUMPDEST JUMPDEST DUP1 PUSH1 0x40 MSTORE POP POP POP JUMP JUMPDEST PUSH1 0x0 PUSH2 0x34F1 DUP3 PUSH2 0x3437 JUMP JUMPDEST SWAP2 POP PUSH32 0xFFFFFFFFFFFFFFFFFFFFFFFFFFFFFFFFFFFFFFFFFFFFFFFFFFFFFFFFFFFFFFFF DUP3 EQ ISZERO PUSH2 0x3524 JUMPI PUSH2 0x3523 PUSH2 0x358E JUMP JUMPDEST JUMPDEST PUSH1 0x1 DUP3 ADD SWAP1 POP SWAP2 SWAP1 POP JUMP JUMPDEST PUSH1 0x0 PUSH2 0x353A DUP3 PUSH2 0x3541 JUMP JUMPDEST SWAP1 POP SWAP2 SWAP1 POP JUMP JUMPDEST PUSH1 0x0 PUSH2 0x354C DUP3 PUSH2 0x369E JUMP JUMPDEST SWAP1 POP SWAP2 SWAP1 POP JUMP JUMPDEST PUSH1 0x0 DUP2 SWAP1 POP SWAP2 SWAP1 POP JUMP JUMPDEST PUSH1 0x0 PUSH2 0x3568 DUP3 PUSH2 0x3437 JUMP JUMPDEST SWAP2 POP PUSH2 0x3573 DUP4 PUSH2 0x3437 JUMP JUMPDEST SWAP3 POP DUP3 PUSH2 0x3583 JUMPI PUSH2 0x3582 PUSH2 0x35BD JUMP JUMPDEST JUMPDEST DUP3 DUP3 MOD SWAP1 POP SWAP3 SWAP2 POP POP JUMP JUMPDEST PUSH32 0x4E487B7100000000000000000000000000000000000000000000000000000000 PUSH1 0x0 MSTORE PUSH1 0x11 PUSH1 0x4 MSTORE PUSH1 0x24 PUSH1 0x0 REVERT JUMPDEST PUSH32 0x4E487B7100000000000000000000000000000000000000000000000000000000 PUSH1 0x0 MSTORE PUSH1 0x12 PUSH1 0x4 MSTORE PUSH1 0x24 PUSH1 0x0 REVERT JUMPDEST PUSH32 0x4E487B7100000000000000000000000000000000000000000000000000000000 PUSH1 0x0 MSTORE PUSH1 0x22 PUSH1 0x4 MSTORE PUSH1 0x24 PUSH1 0x0 REVERT JUMPDEST PUSH32 0x4E487B7100000000000000000000000000000000000000000000000000000000 PUSH1 0x0 MSTORE PUSH1 0x32 PUSH1 0x4 MSTORE PUSH1 0x24 PUSH1 0x0 REVERT JUMPDEST PUSH32 0x4E487B7100000000000000000000000000000000000000000000000000000000 PUSH1 0x0 MSTORE PUSH1 0x41 PUSH1 0x4 MSTORE PUSH1 0x24 PUSH1 0x0 REVERT JUMPDEST PUSH1 0x0 DUP1 REVERT JUMPDEST PUSH1 0x0 DUP1 REVERT JUMPDEST PUSH1 0x0 DUP1 REVERT JUMPDEST PUSH1 0x0 DUP1 REVERT JUMPDEST PUSH1 0x0 PUSH1 0x1F NOT PUSH1 0x1F DUP4 ADD AND SWAP1 POP SWAP2 SWAP1 POP JUMP JUMPDEST PUSH1 0x0 DUP2 PUSH1 0x60 SHL SWAP1 POP SWAP2 SWAP1 POP JUMP JUMPDEST PUSH32 0x4E6F7420636F6D70617469626C65000000000000000000000000000000000000 PUSH1 0x0 DUP3 ADD MSTORE POP JUMP JUMPDEST PUSH32 0x4552433732313A207472616E7366657220746F206E6F6E204552433732315265 PUSH1 0x0 DUP3 ADD MSTORE PUSH32 0x63656976657220696D706C656D656E7465720000000000000000000000000000 PUSH1 0x20 DUP3 ADD MSTORE POP JUMP JUMPDEST PUSH32 0x4F776E61626C653A206E6577206F776E657220697320746865207A65726F2061 PUSH1 0x0 DUP3 ADD MSTORE PUSH32 0x6464726573730000000000000000000000000000000000000000000000000000 PUSH1 0x20 DUP3 ADD MSTORE POP JUMP JUMPDEST PUSH32 0x4552433732313A207472616E736665722066726F6D20696E636F727265637420 PUSH1 0x0 DUP3 ADD MSTORE PUSH32 0x6F776E6572000000000000000000000000000000000000000000000000000000 PUSH1 0x20 DUP3 ADD MSTORE POP JUMP JUMPDEST PUSH32 0x4552433732313A207472616E7366657220746F20746865207A65726F20616464 PUSH1 0x0 DUP3 ADD MSTORE PUSH32 0x7265737300000000000000000000000000000000000000000000000000000000 PUSH1 0x20 DUP3 ADD MSTORE POP JUMP JUMPDEST PUSH32 0x4552433732313A20617070726F766520746F2063616C6C657200000000000000 PUSH1 0x0 DUP3 ADD MSTORE POP JUMP JUMPDEST PUSH32 0x4552433732313A206F70657261746F7220717565727920666F72206E6F6E6578 PUSH1 0x0 DUP3 ADD MSTORE PUSH32 0x697374656E7420746F6B656E0000000000000000000000000000000000000000 PUSH1 0x20 DUP3 ADD MSTORE POP JUMP JUMPDEST PUSH32 0x4552433732314D657461646174613A2055524920717565727920666F72206E6F PUSH1 0x0 DUP3 ADD MSTORE PUSH32 0x6E6578697374656E74207469636B657400000000000000000000000000000000 PUSH1 0x20 DUP3 ADD MSTORE POP JUMP JUMPDEST PUSH32 0x4552433732313A20617070726F76652063616C6C6572206973206E6F74206F77 PUSH1 0x0 DUP3 ADD MSTORE PUSH32 0x6E6572206E6F7220617070726F76656420666F7220616C6C0000000000000000 PUSH1 0x20 DUP3 ADD MSTORE POP JUMP JUMPDEST PUSH32 0x4552433732313A2062616C616E636520717565727920666F7220746865207A65 PUSH1 0x0 DUP3 ADD MSTORE PUSH32 0x726F206164647265737300000000000000000000000000000000000000000000 PUSH1 0x20 DUP3 ADD MSTORE POP JUMP JUMPDEST PUSH32 0x4552433732313A206F776E657220717565727920666F72206E6F6E6578697374 PUSH1 0x0 DUP3 ADD MSTORE PUSH32 0x656E7420746F6B656E0000000000000000000000000000000000000000000000 PUSH1 0x20 DUP3 ADD MSTORE POP JUMP JUMPDEST PUSH32 0x496E697469616C697A61626C653A20636F6E747261637420697320616C726561 PUSH1 0x0 DUP3 ADD MSTORE PUSH32 0x647920696E697469616C697A6564000000000000000000000000000000000000 PUSH1 0x20 DUP3 ADD MSTORE POP JUMP JUMPDEST PUSH32 0x4552433732313A20617070726F76656420717565727920666F72206E6F6E6578 PUSH1 0x0 DUP3 ADD MSTORE PUSH32 0x697374656E7420746F6B656E0000000000000000000000000000000000000000 PUSH1 0x20 DUP3 ADD MSTORE POP JUMP JUMPDEST PUSH32 0x4F776E61626C653A2063616C6C6572206973206E6F7420746865206F776E6572 PUSH1 0x0 DUP3 ADD MSTORE POP JUMP JUMPDEST PUSH32 0x4552433732314D657461646174613A2055524920717565727920666F72206E6F PUSH1 0x0 DUP3 ADD MSTORE PUSH32 0x6E6578697374656E7420746F6B656E0000000000000000000000000000000000 PUSH1 0x20 DUP3 ADD MSTORE POP JUMP JUMPDEST PUSH32 0x4552433732313A20617070726F76616C20746F2063757272656E74206F776E65 PUSH1 0x0 DUP3 ADD MSTORE PUSH32 0x7200000000000000000000000000000000000000000000000000000000000000 PUSH1 0x20 DUP3 ADD MSTORE POP JUMP JUMPDEST PUSH32 0x4552433732313A207472616E736665722063616C6C6572206973206E6F74206F PUSH1 0x0 DUP3 ADD MSTORE PUSH32 0x776E6572206E6F7220617070726F766564000000000000000000000000000000 PUSH1 0x20 DUP3 ADD MSTORE POP JUMP JUMPDEST PUSH32 0x496E697469616C697A61626C653A20636F6E7472616374206973206E6F742069 PUSH1 0x0 DUP3 ADD MSTORE PUSH32 0x6E697469616C697A696E67000000000000000000000000000000000000000000 PUSH1 0x20 DUP3 ADD MSTORE POP JUMP JUMPDEST PUSH2 0x3BD0 DUP2 PUSH2 0x33B1 JUMP JUMPDEST DUP2 EQ PUSH2 0x3BDB JUMPI PUSH1 0x0 DUP1 REVERT JUMPDEST POP JUMP JUMPDEST PUSH2 0x3BE7 DUP2 PUSH2 0x33D5 JUMP JUMPDEST DUP2 EQ PUSH2 0x3BF2 JUMPI PUSH1 0x0 DUP1 REVERT JUMPDEST POP JUMP JUMPDEST PUSH2 0x3BFE DUP2 PUSH2 0x33E1 JUMP JUMPDEST DUP2 EQ PUSH2 0x3C09 JUMPI PUSH1 0x0 DUP1 REVERT JUMPDEST POP JUMP JUMPDEST PUSH2 0x3C15 DUP2 PUSH2 0x33EB JUMP JUMPDEST DUP2 EQ PUSH2 0x3C20 JUMPI PUSH1 0x0 DUP1 REVERT JUMPDEST POP JUMP JUMPDEST PUSH2 0x3C2C DUP2 PUSH2 0x3437 JUMP JUMPDEST DUP2 EQ PUSH2 0x3C37 JUMPI PUSH1 0x0 DUP1 REVERT JUMPDEST POP JUMP INVALID LOG2 PUSH5 0x6970667358 0x22 SLT KECCAK256 0xE2 PUSH8 0xF83378E442C3F0AA 0xCA SWAP13 0xBA SWAP5 MSIZE SWAP6 0x4A PUSH11 0x3C0CA2023AF8D58859324C NOT PUSH14 0xAA64736F6C63430008070033A264 PUSH10 0x70667358221220DBD113 PUSH16 0xB141E3AA4FE9FDAFB90647711FCBB2F3 0x2D 0xB7 0xD6 SDIV DUP9 0xD2 0xBE 0xA8 LOG2 0x4A PUSH16 0x2364736F6C6343000807003300000000 "
		},
		"gasEstimates": {
			"creation": {
				"codeDepositCost": "3564800",
				"executionCost": "3998",
				"totalCost": "3568798"
			},
			"external": {
				"deploy(bytes,uint256)": "infinite",
				"getAddress(bytes,uint256)": "infinite",
				"getBytecode()": "infinite"
			}
		},
		"methodIdentifiers": {
			"deploy(bytes,uint256)": "9c4ae2d0",
			"getAddress(bytes,uint256)": "94ca2cb5",
			"getBytecode()": "52c7420d"
		}
	},
	"abi": [
		{
			"anonymous": false,
			"inputs": [
				{
					"indexed": false,
					"internalType": "address",
					"name": "addr",
					"type": "address"
				},
				{
					"indexed": false,
					"internalType": "uint256",
					"name": "salt",
					"type": "uint256"
				}
			],
			"name": "Deployed",
			"type": "event"
		},
		{
			"inputs": [
				{
					"internalType": "bytes",
					"name": "bytecode",
					"type": "bytes"
				},
				{
					"internalType": "uint256",
					"name": "_salt",
					"type": "uint256"
				}
			],
			"name": "deploy",
			"outputs": [],
			"stateMutability": "payable",
			"type": "function"
		},
		{
			"inputs": [
				{
					"internalType": "bytes",
					"name": "bytecode",
					"type": "bytes"
				},
				{
					"internalType": "uint256",
					"name": "_salt",
					"type": "uint256"
				}
			],
			"name": "getAddress",
			"outputs": [
				{
					"internalType": "address",
					"name": "",
					"type": "address"
				}
			],
			"stateMutability": "view",
			"type": "function"
		},
		{
			"inputs": [],
			"name": "getBytecode",
			"outputs": [
				{
					"internalType": "bytes",
					"name": "",
					"type": "bytes"
				}
			],
			"stateMutability": "pure",
			"type": "function"
		}
	]
}